:100000000C9478000C94A0000C94A0000C94A00018
:100010000C94A0000C94A0000C94A0000C94A000E0
:100020000C94A0000C94A0000C94A0000C94D0049C
:100030000C94A0000C94A0000C94A0000C94A000C0
:100040000C942E030C94A0000C94F0020C94CA02A1
:100050000C94A0000C94A0000C94A0000C94A000A0
:100060000C9478030C94A000072C7AA5BA6CC59068
:10007000DA3B9365FC8BBC53F810FD3C5692834DE4
:10008000BD879D3AB63DCBC9BF5BBE73DA0FC93F92
:100090000000000800020100000304070000000047
:1000A000000000001F1C1F1E1F1E1F1F1E1F1E1FE3
:1000B00000000000250028002B00000000002400A4
:1000C00027002A00040404040404040402020202B7
:1000D000020203030303030301020408102040800B
:1000E0000102040810200102040810202A0B240B2E
:1000F00011241FBECFEFD8E0DEBFCDBF22E0A4E5C4
:10010000B1E001C01D92A83EB207E1F711E0A0E006
:10011000B1E0E8ECF2E202C005900D92A435B1071F
:10012000D9F710E0C7E7D0E004C02197FE010E9494
:10013000450FC637D107C9F70E940A070C9457111B
:100140000C940000FC01538D448D252F30E0842F4A
:1001500090E0821B930B541710F0CF9608950197EF
:100160000895FC01918D828D981761F0828DDF01D9
:10017000A80FB11D5D968C91928D9F5F9F73928F9A
:1001800090E008958FEF9FEF0895FC01918D828D8F
:10019000981731F0828DE80FF11D858D90E008955C
:1001A0008FEF9FEF0895FC01918D228D892F90E0B4
:1001B000805C9F4F821B91098F73992708958DE171
:1001C00092E00E94D30021E0892B09F420E0822FE5
:1001D0000895FC01848DDF01A80FB11DA35ABF4F04
:1001E0002C91848D90E001968F739927848FA68936
:1001F000B7892C93A089B1898C9180648C93938D5D
:10020000848D981306C00288F389E02D80818F7D4C
:1002100080830895EF92FF920F931F93CF93DF9304
:10022000EC0181E0888F9B8D8C8D981305C0E88947
:10023000F989808185FD24C0F62E0B8D10E00F5FBB
:100240001F4F0F731127E02E8C8DE8120CC00FB6D4
:1002500007FCFACFE889F989808185FFF5CFCE01C7
:100260000E94E900F1CF8B8DFE01E80FF11DE35AEA
:10027000FF4FF0820B8FEA89FB898081806207C083
:10028000EE89FF896083E889F989808180648083B1
:1002900081E090E0DF91CF911F910F91FF90EF905F
:1002A0000895CF93DF93EC01888D8823C9F0EA8904
:1002B000FB89808185FD05C0A889B9898C9186FD5F
:1002C0000FC00FB607FCF5CF808185FFF2CFA8895C
:1002D000B9898C9185FFEDCFCE010E94E900E7CF6F
:1002E000DF91CF91089580E090E0892B29F00E9462
:1002F000DF0081110C940000089590E0FC01E057AC
:10030000FF4F3491FC01E852FF4F2491FC01EC5364
:10031000FF4FE491EE2309F43BC0332339F133302E
:1003200091F038F43130A9F0323001F584B58F7D89
:1003300012C0373091F03830A1F03430B9F48091E8
:1003400080008F7D03C0809180008F778093800034
:100350000DC084B58F7784BD09C08091B0008F77C0
:1003600003C08091B0008F7D8093B000F0E0EE0F6D
:10037000FF1FE055FF4FA591B4918FB7F894EC9112
:10038000611103C020952E2301C02E2B2C938FBF0B
:10039000089585ED8093BC008091BC0084FDFCCF66
:1003A0001092F801089540917601262F30E0240F35
:1003B000311D21323105DCF42091F8012430C9F4DB
:1003C000FC0180E090E0861758F43091760121918D
:1003D000DC01AC5ABE4FA30FB11D2C930196F3CF95
:1003E00080917601680F6093760180E0089581E046
:1003F000089582E008951092F80181E08093F7015A
:100400001092D20161E082E10E947D0161E083E10E
:100410000E947D01E9EBF0E080818E7F8083808106
:100420008D7F808388E48093B80085E48093BC004E
:1004300008950895E091A9018091A801E81730F48A
:10044000F0E0E655FE4F808190E008958FEF9FEF3A
:1004500008959091A9018091A801981750F4E92F6F
:10046000F0E0E655FE4F208130E09F5F9093A901B8
:1004700002C02FEF3FEFC90108958091A80190E0DD
:100480002091A901821B91090895CF92DF92EF92EA
:10049000FF920F931F93CF93DF937C01262F972F0B
:1004A0008A018091F901882391F0C62FD72F6E0120
:1004B000C40ED51ECC15DD0571F06991D701ED9103
:1004C000FC910190F081E02DC7010995F3CF642FD5
:1004D000822F0E94D301C801DF91CF911F910F910C
:1004E000FF90EF90DF90CF900895CF93DF931F920E
:1004F000CDB7DEB769832091F9012223D1F0209195
:100500001C02203240F021E030E0FC0133832283E2
:1005100080E090E015C08091FA01E82FF0E0E5500E
:10052000FE4F998190838F5F8093FA0180931C0224
:1005300005C061E0CE0101960E94D30181E090E008
:100540000F90DF91CF910895089580E090E0089595
:10055000FC01618181E06827618320818285938528
:10056000222311F0019601C001979387828722858B
:1005700033858085918537FF03C09387828705C0C7
:100580008217930714F41386128684810C947D01DC
:100590000E9442111F920F920FB60F9211242F93B7
:1005A0003F934F935F936F937F938F939F93AF93FB
:1005B000BF93EF93FF938DE192E00E94E900FF91DA
:1005C000EF91BF91AF919F918F917F916F915F91CB
:1005D0004F913F912F910F900FBE0F901F90189544
:1005E0001F920F920FB60F9211242F938F939F9308
:1005F000EF93FF93E0912D02F0912E028081E09124
:100600003302F091340282FD12C090818091360253
:100610008F5F8F7320913702821751F0E09136027D
:10062000F0E0E35EFD4F958F8093360201C080813C
:10063000FF91EF919F918F912F910F900FBE0F908F
:100640001F9018952FB7F8946091A0017091A101A7
:100650008091A2019091A3012FBF08951F920F9244
:100660000FB60F9211242F933F938F939F93AF93C5
:10067000BF938091A0019091A101A091A201B0919E
:10068000A30130919F0123E0230F2D3720F4019621
:10069000A11DB11D05C026E8230F0296A11DB11DA5
:1006A00020939F018093A0019093A101A093A201A8
:1006B000B093A30180919B0190919C01A0919D0119
:1006C000B0919E010196A11DB11D80939B01909355
:1006D0009C01A0939D01B0939E01BF91AF919F910A
:1006E0008F913F912F910F900FBE0F901F901895F3
:1006F0001F920F920FB60F9211242F933F934F9397
:100700005F936F937F938F939F93AF93BF93EF9379
:10071000FF938091B900887F803609F49CC068F50A
:10072000883209F45BC090F4803109F454C038F485
:10073000882309F4F6C0883009F44DC0F6C088312A
:1007400009F44CC0803209F45DC0EFC0803409F474
:1007500068C048F4803309F455C0883309F0E5C017
:100760008093F601D8C0803509F44FC0883509F46C
:100770005DC0883409F0D9C0D6C0883909F4C7C033
:10078000A8F4883709F467C038F4883609F463C0E0
:10079000803709F460C0C9C0883809F4B8C080390E
:1007A00009F45FC0803809F0C0C05BC0803B09F429
:1007B00086C038F4803A09F466C0883A09F47FC0EC
:1007C000B4C0803C09F4A7C0883C09F4A4C0883BAD
:1007D00009F48AC0AAC08091D30110C09091F5019C
:1007E0008091F401981770F5E091F50181E08E0F8A
:1007F0008093F501F0E0EC52FE4F80818093BB00C6
:1008000085EC86C08093F6018EC0E091F50181E011
:100810008E0F8093F5018091BB00F0E0EC52FE4F0B
:1008200080839091F5018091F4016EC0E091F50113
:1008300081E08E0F8093F5018091BB00F0E0EC52D7
:10084000FE4F80838091F70181116DC081E080931C
:10085000D20184EA61C083E08093F80110929A018A
:10086000CFCF80919A01803208F051C0E0919A0177
:1008700081E08E0F80939A018091BB00F0E0E658F2
:10088000FE4F8083BDCF85EC8093BC001092F801B1
:1008900080919A01803230F4E0919A01F0E0E658BC
:1008A000FE4F108260919A0170E0E0917801F09122
:1008B00079018AE791E0099510929A0136C084E0A7
:1008C0008093F8011092770110927601E091740103
:1008D000F0917501099580917601811105C081E043
:1008E0008093760110925401E091770181E08E0FA0
:1008F00080937701F0E0EC5AFE4F80818093BB003B
:100900009091770180917601981708F479CF85E866
:100910008093BC000AC085EC8093BC001092F80163
:1009200004C01092F6010E94C901FF91EF91BF919E
:10093000AF919F918F917F916F915F914F913F9177
:100940002F910F900FBE0F901F9018950F931F932C
:10095000CF93DF93EC01842F188219824A835B8343
:100960003D832C837F836E83198708870E9425052A
:1009700068818A810E947D018C810E9425056981A0
:100980008C810E947D011B861A868E810E9425051E
:1009900060E08E81DF91CF911F910F910C947D01CA
:1009A0001F920F920FB60F9211242F933F934F93E4
:1009B0005F936F937F938F939F93AF93BF93EF93C7
:1009C000FF9388ED92E00E94A8028CEC92E00E94D6
:1009D000A802FF91EF91BF91AF919F918F917F916D
:1009E0006F915F914F913F912F910F900FBE0F909C
:1009F0001F901895CF92DF92EF92FF920F931F9363
:100A0000CF93DF936C017A018B01C0E0D0E0CE156B
:100A1000DF0589F0D8016D918D01D601ED91FC9132
:100A20000190F081E02DC6010995892B11F47E011A
:100A300002C02196ECCFC701DF91CF911F910F919A
:100A4000FF90EF90DF90CF90089590E0FC01E85286
:100A5000FF4F2491FC01EC53FF4F8491882399F0C0
:100A600090E0880F991FFC01E654FF4FA591B491C7
:100A7000FC01E055FF4F859194918FB7F894EC916C
:100A8000E22BEC938FBF0895682F8AEB92E00C94D1
:100A90007502382F20911C0290911B02213208F020
:100AA00049C08091F8018111FCCF42E04093F801E8
:100AB0003093F7013FEF3093F6011092F501209348
:100AC000F401ABEFB1E044ED51E0FA013E2F341BED
:100AD000321718F43D913193F9CF1092D301209140
:100AE000D301990F922B9093D3019091D201913021
:100AF00061F41092D2019091D3019093BB00909138
:100B0000BC0093FDF8CF95EC01C095EE9093BC002E
:100B10009091F8019230E1F39091F6019F3F79F0C6
:100B20008091F601803241F08091F601803331F0FE
:100B300084E005C081E003C082E001C083E0109240
:100B4000FA0110921C021092F9010895009769F0C1
:100B5000FC0101900020E9F73197AF01481B590BC8
:100B6000BC018DE192E00C94FA0480E090E00895DD
:100B70008F929F92AF92BF920F931F93CF93DF9369
:100B8000CDB7DEB7A1970FB6F894DEBF0FBECDBFCD
:100B900019A2423008F44AE08E010F5D1F4F842EE7
:100BA000912CA12CB12CA50194010E94230FE62FBA
:100BB000B901CA0101501109EA3014F4E05D01C025
:100BC000E95CD801EC93232B242B252B61F7C8017A
:100BD0000E94A605A1960FB6F894DEBF0FBECDBF4A
:100BE000DF91CF911F910F91BF90AF909F908F9009
:100BF00008954F925F926F927F928F929F92AF92E1
:100C0000BF92CF92DF92EF92FF926B017C019B012A
:100C1000AC010E94090F882319F087E491E01AC003
:100C200046015701E894B7F82FEF3FEF4FE75FE732
:100C3000C501B4010E94090F811110C02FEF3FEFD1
:100C40004FE75FE7C501B4010E94DC0B181634F4CE
:100C50008BE491E00E94A6057C018FC02FEF3FEF4F
:100C60004FE75FE4C701B6010E94BE0E18161CF4E0
:100C70008FE491E0EFCF2FEF3FEF4FE75FECC7013D
:100C8000B6010E94DC0B87FDF3CF20E030E0A90124
:100C9000C701B6010E94DC0B87FF11C0E0911D0265
:100CA000F0911E020190F081E02D6DE28DE192E065
:100CB00009955C01F7FAF094F7F8F09402C0A12CC2
:100CC000B12C2AE037ED43EA5BE3C701B6010E948D
:100CD000630D2B013C010E94480E6B017C010E94B8
:100CE000E10B9B01AC01C301B2010E94620D2B011B
:100CF0003C014AE0C701B6010E94B8057C01EA0C3C
:100D0000FB1CE0911D02F0911E020190F081E02D8C
:100D10006EE28DE192E00995E80EF91E20E030E0E8
:100D200040E251E4C301B2010E94420C2B013C019C
:100D30000E94480E4B01A12CB12C4AE0C501B40120
:100D40000E94B805E80EF91EC501B4010E94E10B2E
:100D50009B01AC01C301B2010E94620D20E030E0B2
:100D600040E251E40E94420C0E94480E80E090E074
:100D70004AE00E94B805E80EF91E82E491E00E9464
:100D8000A6058E0D9F1DFF90EF90DF90CF90BF9036
:100D9000AF909F908F907F906F905F904F9008954D
:100DA0000F931F930E9422036093250270932602E3
:100DB0008093270290932802E0911D02F0911E0279
:100DC0000484F585E02D8DE192E0099597FF1FC021
:100DD0000E942203009125021091260220912702F1
:100DE00030912802DC01CB01801B910BA20BB30BCD
:100DF00000912102109122022091230230912402BD
:100E000080179107A207B307B8F28FEF9FEF1F91EA
:100E10000F910895CF93DF93CDB7DEB761970FB6EB
:100E2000F894DEBF0FBECDBF789484B5826084BDD8
:100E300084B5816084BD85B5826085BD85B58160DE
:100E400085BD80916E00816080936E00109281005C
:100E50008091810082608093810080918100816017
:100E600080938100809180008160809380008091D8
:100E7000B10084608093B1008091B0008160809364
:100E8000B00080917A00846080937A0080917A002B
:100E9000826080937A0080917A00816080937A00EA
:100EA00080917A00806880937A001092C10010923D
:100EB000A9011092A8011092FA0110921C020E943E
:100EC000FB0183E190E00E944B0F8C0180E1D8018F
:100ED00052968C9352978CE151968C93519786E061
:100EE00050968C9350971D961C9281E697E963E982
:100EF0007EEFF8012585422F437031E009F030E0A4
:100F0000432F50E0FA01E359FE4F8E179F0748F038
:100F1000DB01A41BB50B8A0F9B1F2F5FF8012587F0
:100F2000E8CF21E0D8011E962C93F8012685E22F08
:100F3000F0E0ED55FF4FE491332319F0223009F42E
:100F4000EF5FF0E08E179F0720F08E1B9F0B2F5F47
:100F5000E9CF8F5FF80187871092FA0110921C0287
:100F60000E94FB01D80112961C921E9211971496B2
:100F70001C921E92139716961C921E921597189605
:100F80001C921E9217971A961C921E9219971C96E5
:100F90001C921E921B971093A7010093A6018CE050
:100FA00090E00E944B0F7C01FC01108211821282A2
:100FB0001382148215821682178210861186128679
:100FC000138611E01093F90189E680931B021092B9
:100FD000FA0110921C028BE690E00E94440580E02A
:100FE00090E00E94440581E00E944905F092CB0107
:100FF000E092CA018CE090E00E944B0F7C01DC0182
:101000001D921D921D921C921397FC011482158251
:101010001682178218961D921D921D921C921B9784
:101020001093F9018EE180931B021092FA01109245
:101030001C0282E090E00E94440580E090E00E9463
:10104000440581E00E944905F092A501E092A401C7
:101050006091E0027091E102072E000C880B990B61
:101060000E94E30B20E030E040E85EE30E94420C87
:101070000E94410E7093E3026093E202E0912D0220
:10108000F0912E0282E08083E0912902F0912A0201
:101090001082E0912B02F0912C0280E1808310926B
:1010A0003502E0913102F091320286E08083E091D6
:1010B0002F02F0913002808180618083E0912F02C5
:1010C000F0913002808188608083E0912F02F0915E
:1010D0003002808180688083E0912F02F09130029D
:1010E00080818F7D808382E391E00E94A60582E467
:1010F00091E00E94A605109280001092810010924B
:1011000085001092840080E09DE790938900809391
:1011100088008091810088608093810080918100A7
:1011200082608093810080916F00826080936F0065
:101130000E9422036093CE017093CF018093D0016F
:101140009093D10187EE93E09093CD018093CC01F1
:1011500005EC0E942203C090CE01D090CF01E09018
:10116000D001F090D101C616D706E806F90608F0BE
:1011700045C28DE192E00E94D30003970CF44BC06E
:101180000E94D006FC0197FD11C08D32910591F0AF
:10119000C0970A9778F0E0911D02F0911E02028438
:1011A000F385E02D8DE192E00995EACF80E090E0B3
:1011B000DC012DC020E030E0A901B12CE130F105C7
:1011C00009F01FC2E0911D02F0911E020284F38516
:1011D000E02D8DE192E02C873D874E875F87099552
:1011E0000E94D006FC01C0972C853D854E855F8509
:1011F0000A9720F3E130F10509F3BB2009F421C27D
:1012000088279927DC01821B930BA40BB50B9093C5
:10121000CD018093CC01E091CA01F091CB01F98B13
:10122000E88B1093F901F9E6F0931B021092FA0192
:1012300010921C028BE390E00E94440580E00E9423
:1012400049058091F8018111FCCF1093F8011093AA
:10125000F7012FEF2093F6011092F50135E030935E
:10126000F4011093D3018091D301826D8093D30157
:101270008091D201813069F41092D2018091D30122
:101280008093BB008091BC0083FDF8CF0093BC002D
:1012900003C045EE4093BC008091F8018130E1F33A
:1012A0008091F501863018F48091F50101C086E047
:1012B000A4EDB1E0EAEAF1E09E2F2AEA31E0921BC8
:1012C000981718F49D919193F7CF1092A9018093EC
:1012D000A8018AEB92E00E942902F82E8AEB92E0A4
:1012E0000E942902FE821D82CD80DE80C82AD92A72
:1012F0008AEB92E00E942902F82E8AEB92E00E948B
:101300002902F8861F82EF80F884E82AF92A8AEBFE
:1013100092E00E9429028B878AEB92E00E942902C8
:101320003C0126E636E646E65FE3A889B9896D9179
:101330007D918D919C910E94420C4B015C01B60104
:10134000DD0C880B990B0E94E30B2DEC3CEC4CEC74
:101350005DE30E94420C9B01AC01C501B4010E94F7
:10136000630D4B015C01E889F98960837183828395
:10137000938326E636E646E65FE3648175818681DF
:1013800097810E94420C1B012C01B701FF0C880BB6
:10139000990B0E94E30B2DEC3CEC4CEC5DE30E94BE
:1013A000420C9B01AC01C201B1010E94630D698333
:1013B0007A838B839C83A889B98914966D937D93D6
:1013C0008D939C93179726E636E646E65FE31896DC
:1013D0006D917D918D919C911B970E94420C6B01A8
:1013E0007C01BB85BA87198669857A856629772944
:1013F000072E000C880B990B0E94E30B2DEC3CECA4
:101400004CEC5DE30E94420C9B01AC01C701B601AC
:101410000E94630D6B017C01E889F98960877187FF
:1014200082879387A5019401C501B4010E94420CF3
:101430002B013C0129813A814B815C81CA01B901B0
:101440000E94420C9B01AC01C301B2010E94630DDA
:101450002B013C01A7019601C701B6010E94420C75
:101460009B01AC01C301B2010E94630D0E94C90E31
:101470002B013C0120E030E0A901C501B4010E942C
:10148000420C29813A814B815C810E94630D4B01A2
:101490005C0120E030E0A901C701B6010E94420CC6
:1014A0009B01AC01C501B4010E94630DA30192012F
:1014B0000E94CF0D0E94510D6B017C0120E030E0B5
:1014C00044E353E40E94420C29EE3FE049E450E437
:1014D0000E94CF0D0E94F905C0920401D09205012F
:1014E000E0920601F09207012BED3FE049EC5FE34B
:1014F000C701B6010E94DC0B682F661F6627661FB6
:101500006093CC028091CE020E947D016091E20244
:101510007091E302072E000C880B990B0E94E30BDD
:101520002BED3FE049EC50E40E94420C6B017C0142
:101530006091E0027091E102072E000C880B990B7C
:101540000E94E30B9B01AC01C701B6010E94CF0DC5
:101550006093000170930101809302019093030155
:1015600085E491E00E94A60520E030E044E353E4E6
:10157000609100017091010180910201909103013D
:101580000E94420C2BED3FE049E450E40E94CF0D55
:101590000E94F9052BED3FE049EC5FE3609100010B
:1015A0007091010180910201909103010E94DC0B76
:1015B000682F661F6627661F6093D8028091DA0243
:1015C0000E947D010E9422032091CC013091CD0127
:1015D00048EE53E0421B530B6A01550FEE08FF081B
:1015E000DC01CB018C0D9D1DAE1DBF1D8093CE0176
:1015F0009093CF01A093D001B093D1010E947301C9
:10160000A8CDED32F105D1F0CF01C0970A9708F0CF
:10161000D9CDAAE0B0E00E94000D6F01FF0FEE08E7
:10162000FF08DC01CB018C0D9D1DAE1DBF1D9C0173
:10163000AD012053310941095109C4CDBB24B394F4
:10164000C1CDDA01C901E3CD8091C6029091C702F4
:101650000C94E00F0F931F931092200210921F0220
:1016600088EE93E0A0E0B0E0809321029093220204
:10167000A0932302B093240222E131E030931E02B2
:1016800020931D0225EC30E030932A02209329029A
:1016900024EC30E030932C0220932B0220EC30E03D
:1016A00030932E0220932D0221EC30E03093300253
:1016B00020932F0222EC30E030933202209331024B
:1016C00026EC30E03093340220933302109236023D
:1016D0001092370210923802109239021092BD0215
:1016E0001092BC028093BE029093BF02A093C002EE
:1016F000B093C10284E291E09093BB028093BA025E
:1017000000E019E127E030E046E050E065E070E0FD
:1017100088ED92E00E94A60424E030E043E050E02F
:1017200062E070E08CEC92E00E94A6041092C70286
:101730001092C6021092C9021092C8021092CB02F7
:101740001092CA0261E070E080E090E00E947810A0
:10175000009789F09093C7028093C6021092C90245
:101760001092C8022091CA023091CB02232BD1F4EF
:10177000FC01108217C08091C6029091C7020097A9
:1017800011F00E94E00F1092C7021092C602109250
:10179000CB021092CA021092C9021092C8021F9185
:1017A0000F9108951092CB021092CA0264E471E086
:1017B0001F910F910C9450110E941E0C08F481E0AF
:1017C0000895E89409C097FB3EF490958095709534
:1017D00061957F4F8F4F9F4F9923A9F0F92F96E97D
:1017E000BB279395F695879577956795B795F111F2
:1017F000F8CFFAF4BB0F11F460FF1BC06F5F7F4F8F
:101800008F4F9F4F16C0882311F096E911C07723A0
:1018100021F09EE8872F762F05C0662371F096E8A9
:10182000862F70E060E02AF09A95660F771F881F78
:10183000DAF7880F9695879597F90895990F00081C
:10184000550FAA0BE0E8FEEF16161706E807F90792
:10185000C0F012161306E407F50798F0621B730B2D
:10186000840B950B39F40A2661F0232B242B252BAE
:1018700021F408950A2609F4A140A6958FEF811D51
:10188000811D08950E94550C0C94C60C0E94B80C42
:1018900038F00E94BF0C20F0952311F00C94AF0C8F
:1018A0000C94B50C11240C94FA0C0E94D70C70F314
:1018B000959FC1F3950F50E0551F629FF001729FF5
:1018C000BB27F00DB11D639FAA27F00DB11DAA1F04
:1018D000649F6627B00DA11D661F829F2227B00D51
:1018E000A11D621F739FB00DA11D621F839FA00DDC
:1018F000611D221F749F3327A00D611D231F849F2C
:10190000600D211D822F762F6A2F11249F57504082
:101910009AF0F1F088234AF0EE0FFF1FBB1F661FFD
:10192000771F881F91505040A9F79E3F510580F0C6
:101930000C94AF0C0C94FA0C5F3FE4F3983ED4F394
:10194000869577956795B795F795E7959F5FC1F76A
:10195000FE2B880F911D9695879597F9089597F915
:101960009F6780E870E060E008959FEF80EC089545
:1019700000240A941616170618060906089500246E
:101980000A9412161306140605060895092E0394E8
:10199000000C11F4882352F0BB0F40F4BF2B11F45C
:1019A00060FF04C06F5F7F4F8F4F9F4F089557FDBB
:1019B0009058440F551F59F05F3F71F04795880FBD
:1019C00097FB991F61F09F3F79F087950895121654
:1019D00013061406551FF2CF4695F1DF08C0161600
:1019E00017061806991FF1CF8695710561050894B1
:1019F0000895E894BB2766277727CB0197F90895C8
:101A00000E94420DA59F900DB49F900DA49F800D44
:101A1000911D112408952F923F924F925F926F92E1
:101A20007F928F929F92AF92BF92CF92DF92EF926E
:101A3000FF920F931F93CF93DF93CDB7DEB7CA1BEF
:101A4000DB0B0FB6F894DEBF0FBECDBF09942A881A
:101A5000398848885F846E847D848C849B84AA84C2
:101A6000B984C884DF80EE80FD800C811B81AA814F
:101A7000B981CE0FD11D0FB6F894DEBF0FBECDBF1A
:101A8000ED010895A29FB001B39FC001A39F700D07
:101A9000811D1124911DB29F700D811D1124911D76
:101AA00008959F939F770E94770E0F90002042F435
:101AB0009058A2EA2AED3FE049E450E40E947A0DF2
:101AC0000C94C60C5058BB27AA270E947A0D0C9480
:101AD000C60C0E94B80C38F00E94BF0C20F039F4FC
:101AE0009F3F19F426F40C94B50C0EF4E095E7FB37
:101AF0000C94AF0CE92F0E94D70C58F3BA17620769
:101B000073078407950720F079F4A6F50C94F90C77
:101B10000EF4E0950B2EBA2FA02D0B01B901900108
:101B20000C01CA01A0011124FF27591B99F0593F4C
:101B300050F4503E68F11A16F040A22F232F342F94
:101B40004427585FF3CF469537952795A795F040E2
:101B50005395C9F77EF41F16BA0B620B730B840BF7
:101B6000BAF09150A1F0FF0FBB1F661F771F881FAF
:101B7000C2F70EC0BA0F621F731F841F48F4879507
:101B800077956795B795F7959E3F08F0B0CF9395F9
:101B9000880F08F09927EE0F9795879508950E9472
:101BA000E30D0C94C60C0E94BF0C58F00E94B80CB8
:101BB00040F029F45F3F29F00C94AF0C51110C94C4
:101BC000FA0C0C94B50C0E94D70C68F39923B1F36E
:101BD000552391F3951B550BBB27AA276217730753
:101BE000840738F09F5F5F4F220F331F441FAA1FE7
:101BF000A9F335D00E2E3AF0E0E832D091505040A3
:101C0000E695001CCAF72BD0FE2F29D0660F771F50
:101C1000881FBB1F261737074807AB07B0E809F036
:101C2000BB0B802DBF01FF2793585F4F3AF09E3FBB
:101C3000510578F00C94AF0C0C94FA0C5F3FE4F370
:101C4000983ED4F3869577956795B795F7959F5FFE
:101C5000C9F7880F911D9695879597F90895E1E04A
:101C6000660F771F881FBB1F621773078407BA07A9
:101C700020F0621B730B840BBA0BEE1F88F7E09504
:101C800008950E94480E6894B1110C94FA0C0895BE
:101C90000E94DF0C88F09F5798F0B92F9927B75111
:101CA000B0F0E1F0660F771F881F991F1AF0BA9500
:101CB000C9F714C0B13091F00E94F90CB1E0089559
:101CC0000C94F90C672F782F8827B85F39F0B93F4B
:101CD000CCF3869577956795B395D9F73EF49095B3
:101CE0008095709561957F4F8F4F9F4F0895DF933B
:101CF000CF931F930F938B01EC01E8E6F0E00E9475
:101D0000970E0E94C60C9801AE018B01EC0160E0B9
:101D100070E080E89FE30E94620D0E94C90E980166
:101D2000AE010F911F91CF91DF910C94550CDF9371
:101D3000CF931F930F93FF92EF92DF927B018C0161
:101D4000689406C0DA2EEF010E94550CFE01E8945B
:101D5000A5912591359145915591A6F3EF010E94EA
:101D60007A0DFE019701A801DA9469F7DF90EF90F0
:101D7000FF900F911F91CF91DF9108950E941E0C4B
:101D800008F48FEF089519F416F40C94B50C0C9424
:101D90000E0F0E94DF0CB8F39923C9F3B6F39F57D7
:101DA000550B87FF0E941C0F0024A0E640EA90011B
:101DB00080585695979528F4805C660F771F881F8A
:101DC00020F026173707480730F4621B730B840B8B
:101DD000202931294A2BA6951794079420253125CF
:101DE0004A2758F7660F771F881F20F026173707F6
:101DF000480730F4620B730B840B200D311D411D1D
:101E0000A09581F7B901842F9158880F96958795F1
:101E100008950E941E0C880B990B08959F3F31F086
:101E2000915020F4879577956795B795880F911D08
:101E30009695879597F9089591505040660F771FB2
:101E4000881FD2F70895A1E21A2EAA1BBB1BFD0121
:101E50000DC0AA1FBB1FEE1FFF1FA217B307E40789
:101E6000F50720F0A21BB30BE40BF50B661F771FE1
:101E7000881F991F1A9469F76095709580959095C1
:101E80009B01AC01BD01CF010895EE0FFF1F05902E
:101E9000F491E02D0994CF93DF938230910510F4F3
:101EA00082E090E0E091E602F091E70220E030E08D
:101EB000C0E0D0E0309711F14081518148175907B7
:101EC000C0F04817590761F482819381209719F077
:101ED0009B838A832BC09093E7028093E60226C0FF
:101EE0002115310519F04217530718F49A01BE0164
:101EF000DF01EF010280F381E02DDCCF21153105F8
:101F000009F1281B390B2430310590F412968D917C
:101F10009C9113976115710521F0FB0193838283D6
:101F200004C09093E7028093E602FD01329644C01C
:101F3000FD01E20FF31F81939193225031092D93FC
:101F40003C933AC02091E4023091E502232B41F406
:101F500020910A0130910B013093E5022093E402B5
:101F600020910801309109012115310541F42DB767
:101F70003EB740910C0150910D01241B350BE091AF
:101F8000E402F091E502E217F307A0F42E1B3F0BE9
:101F90002817390778F0AC014E5F5F4F24173507DB
:101FA00048F04E0F5F1F5093E5024093E402819387
:101FB000919302C0E0E0F0E0CF01DF91CF9108956E
:101FC0000F931F93CF93DF93009709F48CC0FC010C
:101FD0003297138212820091E6021091E7020115F6
:101FE000110581F420813181820F931F2091E40239
:101FF0003091E5022817390779F5F093E502E0936F
:10200000E40271C0D80140E050E0AE17BF0750F4C1
:1020100012962D913C911397AD012115310509F1CF
:10202000D901F3CF9D01DA0133832283608171816D
:10203000860F971F8217930769F4EC012881398175
:10204000260F371F2E5F3F4F318320838A819B816C
:1020500093838283452B29F4F093E702E093E60211
:1020600042C01396FC93EE931297ED01499159915A
:102070009E01240F351FE217F30771F480819181CF
:10208000840F951F029611969C938E938281938163
:1020900013969C938E931297E0E0F0E0D80112968D
:1020A0008D919C911397009719F0F8018C01F6CF50
:1020B0008D919C9198012E5F3F4F820F931F20912D
:1020C000E4023091E5022817390769F4309729F4C2
:1020D0001092E7021092E60202C01382128210935D
:1020E000E5020093E402DF91CF911F910F910895D3
:1020F000A0E0B0E0EEE7F0E10C940F0DEC010097EA
:1021000021F4CB010E944B0FB8C0FC01E60FF71F72
:102110009C0122503109E217F30708F4ACC0D90141
:102120000D911C91119706171707B0F00530110596
:1021300008F49FC0C80104978617970708F499C050
:1021400002501109061B170B019311936D937C9399
:10215000CF010E94E00F8DC05B01A01AB10A4C01B3
:10216000800E911EA091E602B091E70240E050E09F
:10217000E12CF12C109709F44AC0A815B905D1F546
:102180006D907C901197630182E0C80ED11CCA1437
:10219000DB0480F1A3014A195B096A0182E0C80EE1
:1021A000D11C1296BC9012971396AC91B5E0CB1649
:1021B000D10440F0B282A38351834083D9016D934F
:1021C0007C930AC00E5F1F4FC301800F911FF9015E
:1021D00091838083EB2DFA2FE114F10431F0D701C4
:1021E0001396FC93EE93129744C0F093E702E093AA
:1021F000E6023FC08D919C9111974817590708F44A
:10220000AC017D0112960D90BC91A02DB3CF8091B1
:10221000E4029091E50288159905E1F44617570705
:10222000C8F48091080190910901009741F48DB79D
:102230009EB740910C0150910D01841B950BE8173E
:10224000F907C8F4F093E502E093E402F901718321
:1022500060830FC0CB010E944B0F7C01009759F0A7
:10226000A801BE010E944711CE010E94E00FC701E4
:1022700004C0CE0102C080E090E0CDB7DEB7EEE052
:102280000C942B0D81E090E0F8940C945711FB0115
:10229000DC0102C001900D9241505040D8F70895E2
:1022A000FB01DC0101900D920020E1F7089510E0A0
:1022B000C7E7D0E004C0FE010E94450F2196C83751
:0822C000D107C9F7F894FFCF24
:1022C800DB0FC93FDB0FC93F0000E80280000000B8
:1022D80000000A01FA04A2005101D300B100C500B0
:1022E8000000000075024502A50219023D022902FC
:1022F8001A027374617274696E672073657269611A
:102308006C000D0A0043006E616E00696E66006F16
:0423180076660000E5
:107800000C94343C0C94513C0C94513C0C94513CE1
:107810000C94513C0C94513C0C94513C0C94513CB4
:107820000C94513C0C94513C0C94513C0C94513CA4
:107830000C94513C0C94513C0C94513C0C94513C94
:107840000C94513C0C94513C0C94513C0C94513C84
:107850000C94513C0C94513C0C94513C0C94513C74
:107860000C94513C0C94513C11241FBECFEFD8E036
:10787000DEBFCDBF11E0A0E0B1E0ECE9FFE702C060
:1078800005900D92A230B107D9F712E0A2E0B1E065
:1078900001C01D92AD30B107E1F70E942D3D0C945F
:1078A000CC3F0C94003C982F959595959595959582
:1078B000905D8F708A307CF0282F295A8091C0000B
:1078C00085FFFCCF9093C6008091C00085FFFCCF60
:1078D0002093C6000895282F205DF0CF982F809127
:1078E000C00085FFFCCF9093C6000895EF92FF92F1
:1078F0000F931F93EE24FF2487018091C00087FD22
:1079000017C00894E11CF11C011D111D81E4E8164B
:1079100082E4F8068FE0080780E0180770F3E09132
:107920000401F091050109958091C00087FFE9CF1E
:107930008091C6001F910F91FF90EF9008950E94D3
:10794000763C982F8091C00085FFFCCF9093C600B5
:1079500091362CF490330CF09053892F089597555D
:10796000892F08951F930E949F3C182F0E949F3CCF
:107970001295107F810F1F9108951F93182F882350
:1079800021F00E94763C1150E1F71F9108951F935A
:10799000182F0E94763C803249F0809103018F5F5E
:1079A000809303018530C1F01F9108958091C0003C
:1079B00085FFFCCF84E18093C6008091C00085FFE5
:1079C000FCCF1093C6008091C00085FFFCCF80E102
:1079D0008093C6001F910895E0910401F091050184
:1079E00009951F9108950E94763C803241F0809164
:1079F00003018F5F80930301853081F008958091AA
:107A0000C00085FFFCCF84E18093C6008091C00058
:107A100085FFFCCF80E18093C6000895E0910401CA
:107A2000F09105010995089540E951E08823A1F0FE
:107A30002D9A28EE33E0FA013197F1F721503040CA
:107A4000D1F72D9828EE33E0FA013197F1F7215064
:107A50003040D1F7815061F708953F924F925F9285
:107A60006F927F928F929F92AF92BF92CF92DF924E
:107A7000EF92FF920F931F93CF93DF93000080E16B
:107A80008093C4001092C50088E18093C10086E015
:107A90008093C2005098589A259A81E00E94143D24
:107AA00024E1F22E9EE1E92E85E9D82E0FE0C02ECA
:107AB00010E1B12EAA24A394B1E49B2EA6E58A2E50
:107AC000F2E57F2EE0E26E2E79E4572E63E5462E36
:107AD00050E5352E0E94763C8033B1F18133B9F107
:107AE000803409F46FC0813409F476C0823409F41B
:107AF00085C0853409F488C0803531F1823521F1A3
:107B0000813511F1853509F485C0863509F48DC0BC
:107B1000843609F496C0843709F403C1853709F423
:107B200072C1863709F466C0809103018F5F80932C
:107B30000301853079F6E0910401F0910501099582
:107B40000E94763C803351F60E94F33CC3CF0E94E2
:107B5000763C803249F78091C00085FFFCCFF092DF
:107B6000C6008091C00085FFFCCF9092C600809136
:107B7000C00085FFFCCF8092C6008091C00085FFC9
:107B8000FCCF7092C6008091C00085FFFCCF609250
:107B9000C6008091C00085FFFCCF5092C600809146
:107BA000C00085FFFCCF4092C6008091C00085FFD9
:107BB000FCCF3092C6008091C00085FFFCCFB09210
:107BC000C60088CF0E94763C863808F4BDCF0E945C
:107BD000763C0E94F33C7ECF0E94763C803809F4CC
:107BE0009CC0813809F40BC1823809F43CC1883942
:107BF00009F48FC080E00E94C73C6CCF84E10E94F2
:107C0000BD3C0E94F33C66CF85E00E94BD3C0E94D3
:107C1000F33C60CF0E94763C809306010E94763C44
:107C2000809307010E94F33C55CF0E94763C80333D
:107C300009F41DC183E00E94BD3C80E00E94C73C66
:107C400049CF0E94763C809309020E94763C809343
:107C5000080280910C028E7F80930C020E94763C79
:107C6000853409F415C18091080290910902892B8D
:107C700089F000E010E00E94763CF801E85FFE4FDA
:107C800080830F5F1F4F80910802909109020817AF
:107C9000190788F30E94763C803209F045CF809125
:107CA0000C0280FF01C16091060170910701660F0F
:107CB000771F7093070160930601A0910802B091AD
:107CC00009021097C9F0E8E0F1E09B01AD014E0F09
:107CD0005F1FF999FECF32BD21BD819180BDFA9A17
:107CE000F99A2F5F3F4FE417F50799F76A0F7B1F4B
:107CF00070930701609306018091C00085FFFCCF5F
:107D0000F092C6008091C00085FFFCCFB092C60003
:107D1000E1CE83E00E94C73CDDCE82E00E94C73CFA
:107D2000D9CE0E94763C809309020E94763C8093D3
:107D300008028091060190910701880F991F909386
:107D40000701809306010E94763C853409F4A6C0A1
:107D500080910C028E7F80930C020E94763C8032D0
:107D600009F0B8CE8091C00085FFFCCFF092C6002C
:107D7000609108027091090261157105B9F140E046
:107D800050E080910C02A82FA170B82FB27011C0E2
:107D9000BB2309F45CC0E0910601F0910701319624
:107DA000F0930701E09306014F5F5F4F46175707B7
:107DB000E8F4AA2369F3F999FECF209106013091E6
:107DC000070132BD21BDF89A90B58091C00085FFB2
:107DD000FCCF9093C6002F5F3F4F30930701209355
:107DE00006014F5F5F4F4617570718F38091C00099
:107DF00085FDE5CE8091C00085FFF8CFE0CE81E023
:107E00000E94C73C67CE0E94763C803209F08CCE3F
:107E10008091C00085FFFCCFF092C6008091C00029
:107E200085FFFCCFE092C6008091C00085FFFCCFAB
:107E3000D092C6008091C00085FFFCCFC092C600E2
:107E40008091C00085FFFCCFB092C60043CEE09188
:107E50000601F091070194918091C00085FFFCCF4D
:107E60009093C6009CCF80E10E94C73C33CE0E9415
:107E7000763C0E94763C182F0E94763C112309F430
:107E800083C0113009F484C08FE00E94C73C22CE29
:107E900080910C02816080930C02E5CE80910C02EF
:107EA000816080930C0259CF809107018823880F4D
:107EB000880B8A2180930B02809106019091070123
:107EC000880F991F90930701809306018091080203
:107ED00080FF09C080910802909109020196909359
:107EE000090280930802F894F999FECF1127E091D6
:107EF0000601F0910701C8E0D1E08091080290915D
:107F00000902103091F40091570001700130D9F34B
:107F100003E000935700E89500915700017001308D
:107F2000D9F301E100935700E89509901990009169
:107F3000570001700130D9F301E000935700E89534
:107F40001395103498F011270091570001700130FB
:107F5000D9F305E000935700E895009157000170B0
:107F60000130D9F301E100935700E895329602976A
:107F700009F0C7CF103011F00296E5CF112480919F
:107F8000C00085FFB9CEBCCE8EE10E94C73CA2CD19
:0C7F900085E90E94C73C9ECDF894FFCF0D
:027F9C00800063
:040000030000780081
:00000001FF