:100000000C9478000C94A0000C94A0000C94A00018
:100010000C94A0000C94A0000C94A0000C94A000E0
:100020000C94A0000C94A0000C94A0000C941B0550
:100030000C94A0000C94A0000C94A0000C94A000C0
:100040000C948A030C94A0000C944C030C9426038B
:100050000C94A0000C94A0000C94A0000C94A000A0
:100060000C94D4030C94A000072C7AA5BA6CC5900C
:10007000DA3B9365FC8BBC53F810FD3C5692834DE4
:10008000BD879D3AB63DCBC9BF5BBE73DA0FC93F92
:100090000000000800020100000304070000000047
:1000A000000000001F1C1F1E1F1E1F1F1E1F1E1FE3
:1000B00000000000250028002B00000000002400A4
:1000C00027002A00040404040404040402020202B7
:1000D000020203030303030301020408102040800B
:1000E000010204081020010204081020DB0BD50BCC
:1000F00011241FBECFEFD8E0DEBFCDBF23E0A8E9BB
:10010000B1E001C01D92A132B207E1F711E0A0E019
:10011000B1E0E4E0F4E202C005900D92A839B10725
:10012000D9F710E0C7E7D0E004C02197FE010E9494
:10013000E30FC637D107C9F70E94AE070C94F5113B
:100140000C940000FC01538D448D252F30E0842F4A
:1001500090E0821B930B541710F0CF9608950197EF
:100160000895FC01918D828D981761F0828DDF01D9
:10017000A80FB11D5D968C91928D9F5F9F73928F9A
:1001800090E008958FEF9FEF0895FC01918D828D8F
:10019000981731F0828DE80FF11D858D90E008955C
:1001A0008FEF9FEF0895FC01918D228D892F90E0B4
:1001B000805C9F4F821B91098F739927089582E677
:1001C00092E00E94D30021E0892B09F420E0822FE5
:1001D0000895FC01848DDF01A80FB11DA35ABF4F04
:1001E0002C91848D90E001968F739927848FA68936
:1001F000B7892C93A089B1898C9180648C93938D5D
:10020000848D981306C00288F389E02D80818F7D4C
:1002100080830895EF92FF920F931F93CF93DF9304
:10022000EC0181E0888F9B8D8C8D981305C0E88947
:10023000F989808185FD24C0F62E0B8D10E00F5FBB
:100240001F4F0F731127E02E8C8DE8120CC00FB6D4
:1002500007FCFACFE889F989808185FFF5CFCE01C7
:100260000E94E900F1CF8B8DFE01E80FF11DE35AEA
:10027000FF4FF0820B8FEA89FB898081806207C083
:10028000EE89FF896083E889F989808180648083B1
:1002900081E090E0DF91CF911F910F91FF90EF905F
:1002A0000895CF93DF93EC01888D8823C9F0EA8904
:1002B000FB89808185FD05C0A889B9898C9186FD5F
:1002C0000FC00FB607FCF5CF808185FFF2CFA8895C
:1002D000B9898C9185FFEDCFCE010E94E900E7CF6F
:1002E000DF91CF91089580E090E0892B29F00E9462
:1002F000DF0081110C940000089590E0FC01E057AC
:10030000FF4F3491FC01E852FF4F2491FC01EC5364
:10031000FF4FE491EE2309F43BC0332339F133302E
:1003200091F038F43130A9F0323001F584B58F7D89
:1003300012C0373091F03830A1F03430B9F48091E8
:1003400080008F7D03C0809180008F778093800034
:100350000DC084B58F7784BD09C08091B0008F77C0
:1003600003C08091B0008F7D8093B000F0E0EE0F6D
:10037000FF1FE055FF4FA591B4918FB7F894EC9112
:10038000611103C020952E2301C02E2B2C938FBF0B
:10039000089585ED8093BC008091BC0084FDFCCF66
:1003A00010923D0208954091BB01262F30E0240FAA
:1003B000311D21323105DCF420913D022430C9F495
:1003C000FC0180E090E0861758F43091BB01219148
:1003D000DC01A756BE4FA30FB11D2C930196F3CF9E
:1003E0008091BB01680F6093BB0180E0089581E0BC
:1003F000089582E0089510923D0281E080933C02CE
:100400001092170261E082E10E947D0161E083E1C8
:100410000E947D01E9EBF0E080818E7F8083808106
:100420008D7F808388E48093B80085E48093BC004E
:1004300008950895E091EC018091EB01E81730F404
:10044000F0E0E950FE4F808190E008958FEF9FEF3C
:1004500008959091EC018091EB01981750F4E92FE9
:10046000F0E0E950FE4F208130E09F5F9093EC0177
:1004700002C02FEF3FEFC90108958091EB0190E09A
:100480002091EC01821B91090895CF92DF92EF92A7
:10049000FF920F931F93CF93DF937C01262F972F0B
:1004A0008A0180913E02882391F0C62FD72F6E01DA
:1004B000C40ED51ECC15DD0571F06991D701ED9103
:1004C000FC910190F081E02DC7010995F3CF642FD5
:1004D000822F0E94D301C801DF91CF911F910F910C
:1004E000FF90EF90DF90CF900895CF93DF931F920E
:1004F000CDB7DEB7698320913E022223D1F020914F
:100500006102203240F021E030E0FC01338322839D
:1005100080E090E015C080913F02E82FF0E0E05CC1
:10052000FD4F998190838F5F80933F02809361029A
:1005300005C061E0CE0101960E94D30181E090E008
:100540000F90DF91CF910895089580E090E0089595
:10055000CF92DF92EF92FF920F931F93CF93DF938F
:100560008C0181E080933E028EE1809360021092C4
:100570003F021092610283E090E00E94970581E0C3
:100580000E949C0541E066E08EE10E944C061092BC
:10059000EC018093EB01282F30E02630310544F147
:1005A0008FEF92E00E942902C12CD12CD82E8FEF20
:1005B00092E00E942902C82AD92A8FEF92E00E9475
:1005C0002902D82F80E0C82F8FEF92E00E942902E5
:1005D000C82BD92B8FEF92E00E942902E12CF12C3D
:1005E000F82E8FEF92E00E942902E82AF92A02C031
:1005F000C0E0D0E0B601DD0C880B990B0E94880C9E
:10060000F8016083718382839383B701FF0C880BA9
:10061000990B0E94880CF801648375838683978305
:10062000BE01DD0F880B990B0E94880CF8016087D2
:10063000718782879387DF91CF911F910F91FF90F0
:10064000EF90DF90CF9008950E94E0111F920F92DB
:100650000FB60F9211242F933F934F935F936F9395
:100660007F938F939F93AF93BF93EF93FF9382E614
:1006700092E00E94E900FF91EF91BF91AF919F91AD
:100680008F917F916F915F914F913F912F910F903B
:100690000FBE0F901F9018951F920F920FB60F92DA
:1006A00011242F938F939F93EF93FF93E091720206
:1006B000F09173028081E0917802F091790282FDDD
:1006C00012C0908180917B028F5F8F7320917C029A
:1006D000821751F0E0917B02F0E0EE59FD4F958FCB
:1006E00080937B0201C08081FF91EF919F918F9158
:1006F0002F910F900FBE0F901F9018952FB7F89461
:100700006091E5017091E6018091E7019091E80127
:100710002FBF08951F920F920FB60F9211242F939F
:100720003F938F939F93AF93BF938091E5019091F7
:10073000E601A091E701B091E8013091E40123E0E6
:10074000230F2D3720F40196A11DB11D05C026E809
:10075000230F0296A11DB11D2093E4018093E501B2
:100760009093E601A093E701B093E8018091E00146
:100770009091E101A091E201B091E3010196A11DE8
:10078000B11D8093E0019093E101A093E201B09349
:10079000E301BF91AF919F918F913F912F910F9066
:1007A0000FBE0F901F9018951F920F920FB60F92C9
:1007B00011242F933F934F935F936F937F938F9366
:1007C0009F93AF93BF93EF93FF938091B900887F7E
:1007D000803609F49CC068F5883209F45BC090F457
:1007E000803109F454C038F4882309F4F6C0883005
:1007F00009F44DC0F6C0883109F44CC0803209F4C8
:100800005DC0EFC0803409F468C048F4803309F457
:1008100055C0883309F0E5C080933B02D8C08035CD
:1008200009F44FC0883509F45DC0883409F0D9C097
:10083000D6C0883909F4C7C0A8F4883709F467C05E
:1008400038F4883609F463C0803709F460C0C9C041
:10085000883809F4B8C0803909F45FC0803809F0DD
:10086000C0C05BC0803B09F486C038F4803A09F40C
:1008700066C0883A09F47FC0B4C0803C09F4A7C0C0
:10088000883C09F4A4C0883B09F48AC0AAC08091BE
:10089000180210C090913A0280913902981770F5B1
:1008A000E0913A0281E08E0F80933A02F0E0E75E39
:1008B000FD4F80818093BB0085EC86C080933B0216
:1008C0008EC0E0913A0281E08E0F80933A028091CF
:1008D000BB00F0E0E75EFD4F808390913A0280918B
:1008E00039026EC0E0913A0281E08E0F80933A02A5
:1008F0008091BB00F0E0E75EFD4F808380913C0279
:1009000081116DC081E08093170284EA61C083E0A9
:1009100080933D021092DF01CFCF8091DF018032C2
:1009200008F051C0E091DF0181E08E0F8093DF017C
:100930008091BB00F0E0E154FE4F8083BDCF85EC99
:100940008093BC0010923D028091DF01803230F430
:10095000E091DF01F0E0E154FE4F10826091DF0191
:1009600070E0E091BD01F091BE018FEB91E009953F
:100970001092DF0136C084E080933D021092BC01EA
:100980001092BB01E091B901F091BA0109958091F3
:10099000BB01811105C081E08093BB0110929901D8
:1009A000E091BC0181E08E0F8093BC01F0E0E7563E
:1009B000FE4F80818093BB009091BC018091BB0170
:1009C000981708F479CF85E88093BC000AC085ECBD
:1009D0008093BC0010923D0204C010923B020E9422
:1009E000C901FF91EF91BF91AF919F918F917F913D
:1009F0006F915F914F913F912F910F900FBE0F908C
:100A00001F901895CF93DF93EC01842F18821982E1
:100A10004A835B837D836C830E94780568818A8129
:100A20000E947D018C810E94780569818C81DF9113
:100A3000CF910C947D011F920F920FB60F9211244B
:100A40002F933F934F935F936F937F938F939F93D6
:100A5000AF93BF93CF93EF93FF93C091980181E041
:100A60006C2F682780911B030E947D016C2F809161
:100A700015030E947D01FF91EF91CF91BF91AF913E
:100A80009F918F917F916F915F914F913F912F91A6
:100A90000F900FBE0F901F901895CF92DF92EF929C
:100AA000FF920F931F93CF93DF936C017A018B0119
:100AB000C0E0D0E0CE15DF0589F0D8016D918D0141
:100AC000D601ED91FC910190F081E02DC6010995D0
:100AD000892B11F47E0102C02196ECCFC701DF9172
:100AE000CF911F910F91FF90EF90DF90CF900895DD
:100AF00090E0FC01E852FF4F2491FC01EC53FF4FC2
:100B00008491882399F090E0880F991FFC01E654A6
:100B1000FF4FA591B491FC01E055FF4F8591949151
:100B20008FB7F894EC91E22BEC938FBF0895682F68
:100B30008FEF92E00C947502382F20916102909112
:100B40006002213208F049C080913D028111FCCF42
:100B500042E040933D0230933C023FEF30933B0232
:100B600010923A0220933902A0E4B2E049E152E047
:100B7000FA013E2F341B321718F43D913193F9CF0F
:100B80001092180220911802990F922B909318023C
:100B900090911702913061F410921702909118020F
:100BA0009093BB009091BC0093FDF8CF95EC01C0F1
:100BB00095EE9093BC0090913D029230E1F39091BC
:100BC0003B029F3F79F080913B02803241F080915F
:100BD0003B02803331F084E005C081E003C082E055
:100BE00001C083E010923F021092610210923E0217
:100BF0000895009769F0FC0101900020E9F7319712
:100C0000AF01481B590BBC0182E692E00C944D05E4
:100C100080E090E008958F929F92AF92BF920F93E1
:100C20001F93CF93DF93CDB7DEB7A1970FB6F8949C
:100C3000DEBF0FBECDBF19A2423008F44AE08E01DC
:100C40000F5D1F4F842E912CA12CB12CA501940176
:100C50000E94C10FE62FB901CA0101501109EA3003
:100C600014F4E05D01C0E95CD801EC93232B242B44
:100C7000252B61F7C8010E94F905A1960FB6F894DB
:100C8000DEBF0FBECDBFDF91CF911F910F91BF90FF
:100C9000AF909F908F90089590913D029111FCCF5D
:100CA00091E090933D0240933C022FEF20933B0252
:100CB00010923A02260F20933902909318029091D5
:100CC0001802880F892B80931802809117028130B7
:100CD00061F410921702809118028093BB008091FA
:100CE000BC0083FDF8CF85EC01C085EE8093BC008D
:100CF00080913D028130E1F380913A02861710F431
:100D000060913A02A9E1B2E027EF31E0F9018E2FBC
:100D1000821B861718F48D918193F9CF862F089541
:100D20004F925F926F927F928F929F92AF92BF92FB
:100D3000CF92DF92EF92FF926B017C01B42E9B0168
:100D4000AC010E94A70F882319F08CE891E027C01E
:100D500026013701E89477F82FEF3FEF4FE75FE781
:100D6000C301B2010E94A70F81110DC02FEF3FEF09
:100D70004FE75FE7C301B2010E94810C18161CF413
:100D800080E991E00CC02FEF3FEF4FE75FE4C70130
:100D9000B6010E945C0F181684F484E991E0FF907C
:100DA000EF90DF90CF90BF90AF909F908F907F900B
:100DB0006F905F904F900C94F9052FEF3FEF4FE746
:100DC0005FECC701B6010E94810C87FDE6CF20E0F1
:100DD00030E0A901C701B6010E94810C87FF11C054
:100DE000E0916202F09163020190F081E02D6DE2EA
:100DF00082E692E009954C01F7FAF094F7F8F09446
:100E000002C0812C912CA12C60E070E080E09FE377
:100E1000AB1441F020E030E040E251E40E94740E57
:100E2000A394F6CF9B01AC01C701B6010E94080E46
:100E30002B013C010E94E60E6B017C010E94860C96
:100E40009B01AC01C301B2010E94070E2B013C01C2
:100E50004AE0C701B6010E940B067C01E80CF91CB0
:100E6000BB2069F0E0916202F09163020190F08191
:100E7000E02D6EE282E692E00995E80EF91EDB2C89
:100E8000DD2021F120E030E040E251E4C301B20175
:100E90000E94E70C2B013C010E94E60E4B01A12CA5
:100EA000B12C4AE0C501B4010E940B06E80EF91E00
:100EB000C501B4010E94860C9B01AC01C301B201C3
:100EC0000E94070E2B013C01DA94DACFC701FF9094
:100ED000EF90DF90CF90BF90AF909F908F907F90DA
:100EE0006F905F904F9008950F931F930E947E0321
:100EF00060936A0270936B0280936C0290936D0210
:100F0000E0916202F09163020484F585E02D82E6AF
:100F100092E0099597FF1FC00E947E0300916A022C
:100F200010916B0220916C0230916D02DC01CB01BB
:100F3000801B910BA20BB30B00916602109167020C
:100F4000209168023091690280179107A207B307C8
:100F5000B8F28FEF9FEF1F910F910895CF93DF931A
:100F6000CDB7DEB72F970FB6F894DEBF0FBECDBF5B
:100F7000789484B5826084BD84B5816084BD85B574
:100F8000826085BD85B5816085BD80916E00816080
:100F900080936E0010928100809181008260809326
:100FA0008100809181008160809381008091800028
:100FB0008160809380008091B10084608093B10053
:100FC0008091B00081608093B00080917A0084604D
:100FD00080937A0080917A00826080937A00809179
:100FE0007A00816080937A0080917A008068809393
:100FF0007A001092C1001092EC011092EB01109255
:101000003F02109261020E94FB0183E190E00E9486
:10101000E90F8C0180E1D80152968C9352978CE1B4
:1010200051968C93519786E050968C9350971D96CD
:101030001C9281E697E963E97EEFF8012585422F4E
:10104000437031E009F030E0432F50E0FA01E359FA
:10105000FE4F8E179F0748F0DB01A41BB50B8A0FCC
:101060009B1F2F5FF8012587E8CF21E0D8011E964E
:101070002C93F8012685E22FF0E0ED55FF4FE49127
:10108000332319F0223009F4EF5FF0E08E179F0749
:1010900020F08E1B9F0B2F5FE9CF8F5FF8018787B2
:1010A00010923F02109261020E94FB01D801129639
:1010B0001C921E92119714961C921E9213971696CC
:1010C0001C921E92159718961C921E9217971A96AC
:1010D0001C921E9219971C961C921E921B9710939D
:1010E000EA010093E9018CE090E00E94E90F7C01A5
:1010F000FC011082118212821382148215821682E0
:101100001782108611861286138611E010933E0214
:1011100089E68093600210923F02109261028BE692
:1011200090E00E94970580E090E00E94970581E0A2
:101130000E949C05F092F001E092EF018CE090E0BB
:101140000E94E90F7C01DC011D921D921D921C92F0
:101150001397FC01148215821682178218961D922D
:101160001D921D921C921B9710933E028EE180935C
:10117000600210923F021092610282E090E00E94B1
:10118000970580E090E00E94970581E00E949C0511
:10119000F092EE01E092ED01E0917202F0917302A3
:1011A00082E08083E0916E02F0916F021082E09104
:1011B0007002F091710280E1808310927A02E091D6
:1011C0007602F091770286E08083E0917402F091DC
:1011D0007502808180618083E0917402F0917502D4
:1011E000808188608083E0917402F0917502808133
:1011F00080688083E0917402F091750280818F7D18
:10120000808382E391E00E94F90582E491E00E94EC
:10121000F9051092800010928100109285001092C2
:10122000840080E49FE190938900809388008091FE
:10123000810088608093810080918100826080932A
:10124000810080916F00826080936F000E947E0316
:101250006093F3017093F4018093F5019093F6018C
:1012600087EE93E09093F2018093F10101E019E69B
:101270000E947E03C090F301D090F401E090F5014C
:10128000F090F601C616D706E806F90608F067C220
:1012900082E692E00E94D30003970CF44BC00E94B8
:1012A0007407FC0197FD11C08D32910591F0C09734
:1012B0000A9778F0E0916202F09163020284F3856C
:1012C000E02D82E692E00995EACF80E090E0DC0133
:1012D0002DC020E030E0A901B12CE130F10509F08A
:1012E00041C2E0916202F09163020284F385E02D35
:1012F00082E692E02A873B874C875D8709950E94AA
:101300007407FC01C0972A853B854C855D850A974B
:1013100020F3E130F10509F3BB2009F443C288272B
:101320009927DC01821B930BA40BB50B9093F20160
:101330008093F101E091EF01F091F001FF87EE87DA
:1013400000933E021093600210923F0210926102DD
:101350008BE390E00E94970580E00E949C0541E0AD
:1013600066E089E60E944C061092EC018093EB0146
:101370008FEF92E00E942902F82E8FEF92E00E94F8
:1013800029023F2C212C6101C82AD92A8FEF92E033
:101390000E942902F82E8FEF92E00E942902FE821D
:1013A0001D826D807E80682A792A8FEF92E00E94EC
:1013B000290289878FEF92E00E9429022C0126E6FC
:1013C00036E646E65FE3AE85BF856D917D918D91F2
:1013D0009C910E94E70C4B015C01B601DD0C880B6F
:1013E000990B0E94880C2DEC3CEC4CEC5DE30E94C8
:1013F000E70C9B01AC01C501B4010E94080E4B0132
:101400005C01EE85FF85608371838283938326E68A
:1014100036E646E65FE364817581868197810E94A6
:10142000E70C6B017C01B301770C880B990B0E94D0
:10143000880C2DEC3CEC4CEC5DE30E94E70C9B012E
:10144000AC01C701B6010E94080E69837A838B83C1
:101450009C83AE85BF8514966D937D938D939C93ED
:10146000179726E636E646E65FE318966D917D917E
:101470008D919C911B970E94E70C6B017C01B985B3
:10148000B8871F826F81788564297529072E000C23
:10149000880B990B0E94880C2DEC3CEC4CEC5DE326
:1014A0000E94E70C9B01AC01C701B6010E94080E27
:1014B0006B017C01EE85FF8560877187828793874A
:1014C000A5019401C501B4010E94E70C2B013C0168
:1014D00029813A814B815C81CA01B9010E94E70CE4
:1014E0009B01AC01C301B2010E94080E2B013C011B
:1014F000A7019601C701B6010E94E70C9B01AC0150
:10150000C301B2010E94080E0E94670F2B013C012B
:1015100020E030E0A901C501B4010E94E70C298157
:101520003A814B815C810E94080E4B015C0120E0F6
:1015300030E0A901C701B6010E94E70C9B01AC0194
:10154000C501B4010E94080EA30192010E94740E0D
:101550000E94F60D6B017C0120E030E044E353E48F
:101560000E94E70C29EE3FE049E450E40E94740E2B
:1015700042E00E94900682E491E00E94F905C09248
:101580000401D0920501E0920601F0920701BB240C
:10159000B3942BED3FE049EC5FE3C701B6010E9435
:1015A0005C0F18160CF0B12CB09211036B2D8091CA
:1015B00013030E947D01E090ED01F090EE01C70160
:1015C0000E94A80285E491E00E94F905D7016D917F
:1015D0007D918D919C9142E00E9490068EE491E075
:1015E0000E94F905F701648175818681978142E047
:1015F0000E94900688E591E00E94F905D7011896AF
:101600006D917D918D919C911B9742E00E94900677
:1016100082E691E00E94F9056090ED017090EE0184
:10162000C3010E94A802F301C080D180E280F38050
:1016300084809580A680B78080859185A285B385BA
:1016400089839A83AB83BC83A7019601C701B60146
:101650000E94E70C2B013C01A5019401C501B401D6
:101660000E94E70C9B01AC01C301B2010E94080E6D
:101670002B013C0129813A814B815C81CA01B9016E
:101680000E94E70C9B01AC01C301B2010E94080E4D
:101690000E94670F2B013C0120E030E0A901C50149
:1016A000B4010E94E70C9B01AC01C701B6010E9486
:1016B000080E6B017C0120E030E0A90169817A818C
:1016C0008B819C810E94E70C9B01AC01C701B60194
:1016D0000E94080EA30192010E94740E0E94F60D52
:1016E0006B017C0183E791E00E94F90520E030E086
:1016F00044E353E4C701B6010E94E70C29EE3FE042
:1017000049E450E40E94740E42E00E94900682E494
:1017100091E00E94F905C0920001D0920101E0928F
:101720000201F09203010E947E032091F1013091A9
:10173000F201E8EEF3E0E21BF30B6F01FF0FEE089E
:10174000FF08DC01CB018C0D9D1DAE1DBF1D8093DC
:10175000F3019093F401A093F501B093F6010E9478
:10176000730186CDED32F105D1F0CF01C0970A9714
:1017700008F0B7CDAAE0B0E00E94A50D6F01FF0F01
:10178000EE08FF08DC01CB018C0D9D1DAE1DBF1DB9
:101790009C01AD012053310941095109A2CDBB245F
:1017A000B3949FCDDA01C901C1CD80910B03909113
:1017B0000C030C947E10109265021092640288EE65
:1017C00093E0A0E0B0E08093660290936702A0935C
:1017D0006802B093690222E131E030936302209302
:1017E000620225EC30E030936F0220936E0224EC0D
:1017F00030E0309371022093700220EC30E030939F
:1018000073022093720221EC30E030937502209332
:10181000740222EC30E0309377022093760226ECBB
:1018200030E0309379022093780210927B0210927C
:101830007C0210927D0210927E021092020310929E
:1018400001038093030390930403A0930503B093D3
:10185000060384E291E0909300038093FF0247E047
:1018600050E068E070E087E193E00E94020543E009
:1018700050E064E070E081E193E00E940205109284
:101880000C0310920B0310920E0310920D03109292
:10189000100310920F0361E070E080E090E00E947E
:1018A0001611009789F090930C0380930B0310920C
:1018B0000E0310920D0320910F0330911003232B80
:1018C000C1F4FC01108215C080910B0390910C03B0
:1018D000009711F00E947E1010920C0310920B03DF
:1018E0001092100310920F0310920E0310920D032A
:1018F00008951092100310920F0364E471E00C94A9
:10190000EE110E94C30C08F481E00895E89409C028
:1019100097FB3EF490958095709561957F4F8F4F22
:101920009F4F9923A9F0F92F96E9BB279395F69538
:10193000879577956795B795F111F8CFFAF4BB0FB6
:1019400011F460FF1BC06F5F7F4F8F4F9F4F16C01A
:10195000882311F096E911C0772321F09EE8872FA4
:10196000762F05C0662371F096E8862F70E060E060
:101970002AF09A95660F771F881FDAF7880F9695D9
:10198000879597F90895990F0008550FAA0BE0E87D
:10199000FEEF16161706E807F907C0F01216130631
:1019A000E407F50798F0621B730B840B950B39F471
:1019B0000A2661F0232B242B252B21F408950A26D7
:1019C00009F4A140A6958FEF811D811D08950E9405
:1019D000FA0C0C946B0D0E945D0D38F00E94640DA2
:1019E00020F0952311F00C94540D0C945A0D1124F1
:1019F0000C949F0D0E947C0D70F3959FC1F3950F81
:101A000050E0551F629FF001729FBB27F00DB11D82
:101A1000639FAA27F00DB11DAA1F649F6627B00D12
:101A2000A11D661F829F2227B00DA11D621F739FFB
:101A3000B00DA11D621F839FA00D611D221F749F09
:101A40003327A00D611D231F849F600D211D822F50
:101A5000762F6A2F11249F5750409AF0F1F0882377
:101A60004AF0EE0FFF1FBB1F661F771F881F9150A4
:101A70005040A9F79E3F510580F00C94540D0C94F2
:101A80009F0D5F3FE4F3983ED4F386957795679575
:101A9000B795F795E7959F5FC1F7FE2B880F911DCE
:101AA0009695879597F9089597F99F6780E870E074
:101AB00060E008959FEF80EC089500240A941616C4
:101AC000170618060906089500240A94121613062C
:101AD000140605060895092E0394000C11F48823BA
:101AE00052F0BB0F40F4BF2B11F460FF04C06F5FD6
:101AF0007F4F8F4F9F4F089557FD9058440F551FAC
:101B000059F05F3F71F04795880F97FB991F61F07F
:101B10009F3F79F087950895121613061406551FF6
:101B2000F2CF4695F1DF08C0161617061806991F62
:101B3000F1CF86957105610508940895E894BB2757
:101B400066277727CB0197F908950E94E70DA59F97
:101B5000900DB49F900DA49F800D911D11240895A8
:101B60002F923F924F925F926F927F928F929F92AD
:101B7000AF92BF92CF92DF92EF92FF920F931F939B
:101B8000CF93DF93CDB7DEB7CA1BDB0B0FB6F8944C
:101B9000DEBF0FBECDBF09942A88398848885F848C
:101BA0006E847D848C849B84AA84B984C884DF80FD
:101BB000EE80FD800C811B81AA81B981CE0FD11DE1
:101BC0000FB6F894DEBF0FBECDBFED010895A29F02
:101BD000B001B39FC001A39F700D811D1124911D01
:101BE000B29F700D811D1124911D08959F939F77C1
:101BF0000E94150F0F90002042F49058A2EA2AED9F
:101C00003FE049E450E40E941F0E0C946B0D5058C5
:101C1000BB27AA270E941F0E0C946B0D0E945D0D1E
:101C200038F00E94640D20F039F49F3F19F426F437
:101C30000C945A0D0EF4E095E7FB0C94540DE92F2B
:101C40000E947C0D58F3BA17620773078407950743
:101C500020F079F4A6F50C949E0D0EF4E0950B2E71
:101C6000BA2FA02D0B01B90190010C01CA01A001EE
:101C70001124FF27591B99F0593F50F4503E68F149
:101C80001A16F040A22F232F342F4427585FF3CF8A
:101C9000469537952795A795F0405395C9F77EF45B
:101CA0001F16BA0B620B730B840BBAF09150A1F0A4
:101CB000FF0FBB1F661F771F881FC2F70EC0BA0F2A
:101CC000621F731F841F48F4879577956795B795B2
:101CD000F7959E3F08F0B0CF9395880F08F09927AD
:101CE000EE0F9795879508950E94880E0C946B0DC2
:101CF0000E94640D58F00E945D0D40F029F45F3F92
:101D000029F00C94540D51110C949F0D0C945A0D04
:101D10000E947C0D68F39923B1F3552391F3951B31
:101D2000550BBB27AA2762177307840738F09F5FFC
:101D30005F4F220F331F441FAA1FA9F335D00E2E69
:101D40003AF0E0E832D091505040E695001CCAF7D6
:101D50002BD0FE2F29D0660F771F881FBB1F261799
:101D600037074807AB07B0E809F0BB0B802DBF0170
:101D7000FF2793585F4F3AF09E3F510578F00C943F
:101D8000540D0C949F0D5F3FE4F3983ED4F3869579
:101D900077956795B795F7959F5FC9F7880F911D60
:101DA0009695879597F90895E1E0660F771F881F4C
:101DB000BB1F621773078407BA0720F0621B730BFF
:101DC000840BBA0BEE1F88F7E09508950E94840DEE
:101DD00088F09F5798F0B92F9927B751B0F0E1F0EC
:101DE000660F771F881F991F1AF0BA95C9F714C09C
:101DF000B13091F00E949E0DB1E008950C949E0DBB
:101E0000672F782F8827B85F39F0B93FCCF38695D4
:101E100077956795B395D9F73EF490958095709531
:101E200061957F4F8F4F9F4F0895DF93CF931F93FF
:101E30000F938B01EC01E8E6F0E00E94350F0E9461
:101E40006B0D9801AE018B01EC0160E070E080E861
:101E50009FE30E94070E0E94670F9801AE010F9149
:101E60001F91CF91DF910C94FA0CDF93CF931F93C6
:101E70000F93FF92EF92DF927B018C01689406C072
:101E8000DA2EEF010E94FA0CFE01E894A59125914B
:101E9000359145915591A6F3EF010E941F0EFE0169
:101EA0009701A801DA9469F7DF90EF90FF900F9106
:101EB0001F91CF91DF9108950E94C30C08F48FEF1A
:101EC000089519F416F40C945A0D0C94AC0F0E945A
:101ED000840DB8F39923C9F3B6F39F57550B87FFC9
:101EE0000E94BA0F0024A0E640EA9001805856955F
:101EF000979528F4805C660F771F881F20F02617BF
:101F00003707480730F4621B730B840B20293129F3
:101F10004A2BA69517940794202531254A2758F770
:101F2000660F771F881F20F026173707480730F401
:101F3000620B730B840B200D311D411DA09581F7A1
:101F4000B901842F9158880F9695879508950E941E
:101F5000C30C880B990B08959F3F31F0915020F4EA
:101F6000879577956795B795880F911D9695879575
:101F700097F9089591505040660F771F881FD2F748
:101F80000895A1E21A2EAA1BBB1BFD010DC0AA1FBA
:101F9000BB1FEE1FFF1FA217B307E407F50720F0D2
:101FA000A21BB30BE40BF50B661F771F881F991F4D
:101FB0001A9469F760957095809590959B01AC0196
:101FC000BD01CF010895EE0FFF1F0590F491E02DA4
:101FD0000994CF93DF938230910510F482E090E072
:101FE000E0911F03F091200320E030E0C0E0D0E05A
:101FF000309711F14081518148175907C0F04817B7
:10200000590761F482819381209719F09B838A8319
:102010002BC09093200380931F0326C02115310508
:1020200019F04217530718F49A01BE01DF01EF01BE
:102030000280F381E02DDCCF2115310509F1281B49
:10204000390B2430310590F412968D919C911397A1
:102050006115710521F0FB019383828304C0909385
:10206000200380931F03FD01329644C0FD01E20F5F
:10207000F31F81939193225031092D933C933AC0E1
:1020800020911D0330911E03232B41F420910A015E
:1020900030910B0130931E0320931D032091080102
:1020A000309109012115310541F42DB73EB740911A
:1020B0000C0150910D01241B350BE0911D03F09193
:1020C0001E03E217F307A0F42E1B3F0B2817390756
:1020D00078F0AC014E5F5F4F2417350748F04E0F84
:1020E0005F1F50931E0340931D038193919302C081
:1020F000E0E0F0E0CF01DF91CF9108950F931F93BF
:10210000CF93DF93009709F48CC0FC0132971382C0
:10211000128200911F03109120030115110581F413
:1021200020813181820F931F20911D0330911E0366
:102130002817390779F5F0931E03E0931D0371C04A
:10214000D80140E050E0AE17BF0750F412962D9131
:102150003C911397AD012115310509F1D901F3CF58
:102160009D01DA013383228360817181860F971F7D
:102170008217930769F4EC0128813981260F371FF4
:102180002E5F3F4F318320838A819B81938382839B
:10219000452B29F4F0932003E0931F0342C01396CC
:1021A000FC93EE931297ED01499159919E01240FF2
:1021B000351FE217F30771F480819181840F951F19
:1021C000029611969C938E938281938113969C9391
:1021D0008E931297E0E0F0E0D80112968D919C91D9
:1021E0001397009719F0F8018C01F6CF8D919C910F
:1021F00098012E5F3F4F820F931F20911D03309156
:102200001E032817390769F4309729F41092200328
:1022100010921F0302C01382128210931E030093B8
:102220001D03DF91CF911F910F910895A0E0B0E0C1
:10223000ECE1F1E10C94B40DEC01009721F4CB0139
:102240000E94E90FB8C0FC01E60FF71F9C01225065
:102250003109E217F30708F4ACC0D9010D911C91C4
:10226000119706171707B0F00530110508F49FC045
:10227000C80104978617970708F499C002501109FE
:10228000061B170B019311936D937C93CF010E9452
:102290007E108DC05B01A01AB10A4C01800E911E08
:1022A000A0911F03B091200340E050E0E12CF12CFD
:1022B000109709F44AC0A815B905D1F56D907C9026
:1022C0001197630182E0C80ED11CCA14DB0480F1AF
:1022D000A3014A195B096A0182E0C80ED11C12965B
:1022E000BC9012971396AC91B5E0CB16D10440F098
:1022F000B282A38351834083D9016D937C930AC03A
:102300000E5F1F4FC301800F911FF90191838083DE
:10231000EB2DFA2FE114F10431F0D7011396FC9361
:10232000EE93129744C0F0932003E0931F033FC045
:102330008D919C9111974817590708F4AC017D01C4
:1023400012960D90BC91A02DB3CF80911D0390915A
:102350001E0388159905E1F446175707C8F48091C4
:10236000080190910901009741F48DB79EB7409103
:102370000C0150910D01841B950BE817F907C8F467
:10238000F0931E03E0931D03F901718360830FC076
:10239000CB010E94E90F7C01009759F0A801BE0112
:1023A0000E94E511CE010E947E10C70104C0CE013B
:1023B00002C080E090E0CDB7DEB7EEE00C94D00D27
:1023C00081E090E0F8940C94F511FB01DC0102C06F
:1023D00001900D9241505040D8F70895FB01DC0167
:1023E00001900D920020E1F7089510E0C7E7D0E0DA
:1023F00004C0FE010E94E30F2196C837D107C9F738
:04240000F894FFCF7E
:10240400DB0FC93FDB0FC93F000021038000000040
:1024140000000A014D05A2005101D300B100C5001E
:102424000000000075024502A50219023D022902BE
:102434001A027374617274696E67207365726961DC
:102444006C000D0A000D436F6D70583A2000202077
:10245400436F6D70593A20002020436F6D705A3AD3
:102464002000202020202020202020202020202088
:1024740020200020636F6D7061737320616E676C40
:102484006520746F20726566203D20006E616E00C9
:08249400696E66006F766600B8
:00000001FF
