:100000000C9464000C948C000C948C000C948C0068
:100010000C948C000C948C000C948C000C948C0030
:100020000C948C000C948C000C948C000C948C0020
:100030000C948C000C948C000C948C000C948C0010
:100040000C94FA020C948C000C94BC020C94960252
:100050000C948C000C948C000C948C000C948C00F0
:100060000C9444030C948C00000000080002010072
:100070000003040700000000000000001F1C1F1EFA
:100080001F1E1F1F1E1F1E1F00000000250028002E
:100090002B0000000000240027002A0004040404B0
:1000A0000404040402020202020203030303030322
:1000B00001020408102040800102040810200102FF
:1000C00004081020720A6C0A11241FBECFEFD8E07A
:1000D000DEBFCDBF23E0A2EDB1E001C01D92AF3481
:1000E000B207E1F711E0A0E0B1E0ECE5FBE102C00E
:1000F00005900D92A23DB107D9F710E0C3E6D0E01C
:1001000004C02197FE010E948F0BC236D107C9F7A8
:100110000E9422060C94A10D0C94000080912202F2
:1001200090E020912302821B91090895FC01538DD8
:10013000448D252F30E0842F90E0821B930B5417C1
:1001400010F0CF96089501970895FC01918D828D4E
:10015000981761F0828DDF01A80FB11D5D968C911B
:10016000928D9F5F9F73928F90E008958FEF9FEF26
:100170000895FC01918D828D981731F0828DE80FE2
:10018000F11D858D90E008958FEF9FEF0895FC019C
:10019000918D228D892F90E0805C9F4F821B910969
:1001A0008F73992708958CE992E00E94C70021E09F
:1001B000892B09F420E0822F0895FC01848DDF0152
:1001C000A80FB11DA35ABF4F2C91848D90E00196CA
:1001D0008F739927848FA689B7892C93A089B189B9
:1001E0008C9180648C93938D848D981306C00288C3
:1001F000F389E02D80818F7D80830895EF92FF92B7
:100200000F931F93CF93DF93EC0181E0888F9B8D39
:100210008C8D981305C0E889F989808185FD24C0FB
:10022000F62E0B8D10E00F5F1F4F0F731127E02E7E
:100230008C8DE8120CC00FB607FCFACFE889F9895B
:10024000808185FFF5CFCE010E94DD00F1CF8B8D3F
:10025000FE01E80FF11DE35AFF4FF0820B8FEA8990
:10026000FB898081806207C0EE89FF896083E8890D
:10027000F98980818064808381E090E0DF91CF9173
:100280001F910F91FF90EF900895CF93DF93EC01B2
:10029000888D8823C9F0EA89FB89808185FD05C0A6
:1002A000A889B9898C9186FD0FC00FB607FCF5CFE0
:1002B000808185FFF2CFA889B9898C9185FFEDCF28
:1002C000CE010E94DD00E7CFDF91CF91089580E05D
:1002D00090E0892B29F00E94D30081110C9400003A
:1002E000089590E0FC01E859FF4F3491FC01E0557E
:1002F000FF4F2491FC01E456FF4FE491EE2309F4F3
:100300003BC0332339F1333091F038F43130A9F068
:10031000323001F584B58F7D12C0373091F038301E
:10032000A1F03430B9F4809180008F7D03C08091BA
:1003300080008F77809380000DC084B58F7784BD57
:1003400009C08091B0008F7703C08091B0008F7D8D
:100350008093B000F0E0EE0FFF1FE857FF4FA5912C
:10036000B4918FB7F894EC91611103C020952E23BE
:1003700001C02E2B2C938FBF089585ED8093BC0078
:100380008091BC0084FDFCCF10929B0208954091A7
:10039000F401262F30E0240F311D21323105DCF429
:1003A00020919B022430C9F4FC0180E090E0861784
:1003B00058F43091F4012191DC01AE52BE4FA30FED
:1003C000B11D2C930196F3CF8091F401680F6093D7
:1003D000F40180E0089581E0089582E0089510928C
:1003E0009B0281E080939A021092950261E082E183
:1003F0000E94710161E083E10E947101E9EBF0E08C
:1004000080818E7F808380818D7F808388E480934C
:10041000B80085E48093BC0008950895E09123021C
:1004200080912202E81730F4F0E0EB5AFD4F808112
:1004300090E008958FEF9FEF0895909123028091AF
:100440002202981750F4E92FF0E0EB5AFD4F20817B
:1004500030E09F5F9093230202C02FEF3FEFC9016E
:100460000895CF92DF92EF92FF920F931F93CF9355
:10047000DF937C01262F972F8A01809131028823F8
:1004800091F0C62FD72F6E01C40ED51ECC15DD05F9
:1004900071F06991D701ED91FC910190F081E02D0F
:1004A000C7010995F3CF642F822F0E94C701C801AD
:1004B000DF91CF911F910F91FF90EF90DF90CF9040
:1004C0000895CF93DF931F92CDB7DEB76983209154
:1004D00031022223D1F020915402203240F021E059
:1004E00030E0FC013383228380E090E015C08091EE
:1004F0003202E82FF0E0ED5CFD4F998190838F5F31
:10050000809332028093540205C061E0CE010196CF
:100510000E94C70181E090E00F90DF91CF91089594
:10052000089580E090E008950E948C0D1F920F9234
:100530000FB60F9211242F933F934F935F936F93B6
:100540007F938F939F93AF93BF93EF93FF938CE928
:1005500092E00E94DD00FF91EF91BF91AF919F91DA
:100560008F917F916F915F914F913F912F910F905C
:100570000FBE0F901F9018951F920F920FB60F92FB
:1005800011242F938F939F93EF93FF93E091AC02ED
:10059000F091AD028081E091B202F091B30282FD50
:1005A00012C090818091B5028F5F8F732091B60247
:1005B000821751F0E091B502F0E0E456FD4F958FBF
:1005C0008093B50201C08081FF91EF919F918F913F
:1005D0002F910F900FBE0F901F9018952FB7F89482
:1005E00060911E0270911F02809120029091210261
:1005F0002FBF08951F920F920FB60F9211242F93C1
:100600003F938F939F93AF93BF9380911E029091DE
:100610001F02A0912002B091210230911D0223E01F
:10062000230F2D3720F40196A11DB11D05C026E82A
:10063000230F0296A11DB11D20931D0280931E025F
:1006400090931F02A0932002B0932102809119027F
:1006500090911A02A0911B02B0911C020196A11D5B
:10066000B11D8093190290931A02A0931B02B093BC
:100670001C02BF91AF919F918F913F912F910F904D
:100680000FBE0F901F9018951F920F920FB60F92EA
:1006900011242F933F934F935F936F937F938F9387
:1006A0009F93AF93BF93EF93FF938091B900887F9F
:1006B000803609F49CC068F5883209F45BC090F478
:1006C000803109F454C038F4882309F4F6C0883026
:1006D00009F44DC0F6C0883109F44CC0803209F4E9
:1006E0005DC0EFC0803409F468C048F4803309F479
:1006F00055C0883309F0E5C080939902D8C0803591
:1007000009F44FC0883509F45DC0883409F0D9C0B8
:10071000D6C0883909F4C7C0A8F4883709F467C07F
:1007200038F4883609F463C0803709F460C0C9C062
:10073000883809F4B8C0803909F45FC0803809F0FE
:10074000C0C05BC0803B09F486C038F4803A09F42D
:1007500066C0883A09F47FC0B4C0803C09F4A7C0E1
:10076000883C09F4A4C0883B09F48AC0AAC08091DF
:10077000960210C09091980280919702981770F598
:10078000E091980281E08E0F80939802F0E0EB58A0
:10079000FD4F80818093BB0085EC86C080939902D9
:1007A0008EC0E091980281E08E0F80939802809134
:1007B000BB00F0E0EB58FD4F808390919802809150
:1007C00097026EC0E091980281E08E0F80939802AC
:1007D0008091BB00F0E0EB58FD4F808380919A023E
:1007E00081116DC081E08093950284EA61C083E04D
:1007F00080939B0210921802CFCF80911802803212
:1008000008F051C0E091180281E08E0F8093180229
:100810008091BB00F0E0E850FE4F8083BDCF85ECB7
:100820008093BC0010929B0280911802803230F4B9
:10083000E0911802F0E0E850FE4F1082609118023B
:1008400070E0E091F601F091F70188EF91E00995F1
:100850001092180236C084E080939B021092F5013A
:100860001092F401E091F201F091F3010995809169
:10087000F401811105C081E08093F4011092D2014E
:10088000E091F50181E08E0F8093F501F0E0EE52EA
:10089000FE4F80818093BB009091F5018091F4011F
:1008A000981708F479CF85E88093BC000AC085ECDE
:1008B0008093BC0010929B0204C0109299020E9487
:1008C000BD01FF91EF91BF91AF919F918F917F916A
:1008D0006F915F914F913F912F910F900FBE0F90AD
:1008E0001F901895CF92DF92EF92FF920F931F9374
:1008F000CF93DF936C017A018B01C0E0D0E0CE157D
:10090000DF0589F0D8016D918D01D601ED91FC9143
:100910000190F081E02DC6010995892B11F47E012B
:1009200002C02196ECCFC701DF91CF911F910F91AB
:10093000FF90EF90DF90CF900895682F89E393E0C8
:100940000C946102009769F0FC0101900020E9F726
:100950003197AF01481B590BBC018CE992E00C9414
:10096000720480E090E008958F929F92AF92BF92C0
:100970000F931F93CF93DF93CDB7DEB7A1970FB639
:10098000F894DEBF0FBECDBF19A2423008F44AE092
:100990008E010F5D1F4F842E912CA12CB12CA5012F
:1009A00094010E946D0BE62FB901CA010150110993
:1009B000EA3014F4E05D01C0E95CD801EC93232B2C
:1009C000242B252B61F7C8010E94A204A1960FB623
:1009D000F894DEBF0FBECDBFDF91CF911F910F9175
:1009E000BF90AF909F908F9008950C94A204CF92E7
:1009F000DF92EF92FF92CF93DF936B017C01E09146
:100A00009C02F0919D020190F081E02D6DE28CE955
:100A100092E00995EC0166277727CB016C197D09D7
:100A20008E099F094AE00E94B4048C0F9D1FDF913C
:100A3000CF91FF90EF90DF90CF900895BC01990F78
:100A4000880B990B97FD0C94F7044AE00C94B404BE
:100A500090919B029111FCCF91E090939B02409367
:100A60009A022FEF2093990210929802260F20935A
:100A700097029093960290919602880F892B80930B
:100A8000960280919502813061F4109295028091D6
:100A900096028093BB008091BC0083FDF8CF85EC6B
:100AA00001C085EE8093BC0080919B028130E1F310
:100AB00080919802861710F460919802A5E7B2E041
:100AC00025E532E0F9018E2F821B861718F48D91EF
:100AD0008193F9CF862F0895382F20915402909159
:100AE0005302213208F049C080919B028111FCCF52
:100AF00042E040939B0230939A023FEF3093990279
:100B00001092980220939702A3E3B2E045E752E0E7
:100B1000FA013E2F341B321718F43D913193F9CF6F
:100B20001092960220919602990F922B9093960222
:100B300090919502913061F41092950290919602F5
:100B40009093BB009091BC0093FDF8CF95EC01C051
:100B500095EE9093BC0090919B029230E1F39091BE
:100B600099029F3F79F080919902803241F0809103
:100B70009902803331F084E005C081E003C082E057
:100B800001C083E01092320210925402109231029E
:100B9000089590E0FC01E055FF4F2491FC01E456DC
:100BA000FF4F8491882399F090E0880F991FFC01F2
:100BB000EE56FF4FA591B491FC01E857FF4F859188
:100BC00094918FB7F894EC91E22BEC938FBF08953A
:100BD0000F931F930E94EE026093A4027093A502EC
:100BE0008093A6029093A702E0919C02F0919D024F
:100BF0000484F585E02D8CE992E0099597FF1FC0EC
:100C00000E94EE020091A4021091A5022091A6027A
:100C10003091A702DC01CB01801B910BA20BB30B1F
:100C20000091A0021091A1022091A2023091A30292
:100C300080179107A207B307B8F28FEF9FEF1F91BC
:100C40000F910895CF93DF93CDB7DEB76D970FB6B1
:100C5000F894DEBF0FBECDBF789484B5826084BDAA
:100C600084B5816084BD85B5826085BD85B58160B0
:100C700085BD80916E00816080936E00109281002E
:100C800080918100826080938100809181008160E9
:100C900080938100809180008160809380008091AA
:100CA000B10084608093B1008091B0008160809336
:100CB000B00080917A00846080937A0080917A00FD
:100CC000826080937A0080917A00816080937A00BC
:100CD00080917A00806880937A001092C10010920F
:100CE00023021092220210923202109254020E94A9
:100CF000EF0183E190E00E94950B8C0180E1F80107
:100D0000828B8CE1818B86E0808B158681E697E96A
:100D100063E97EEFF8012585422F437031E009F049
:100D200030E0432F50E0FA01E359FE4F8E179F0742
:100D300048F0FB01E41BF50B8E0F9F1F2F5FF8019E
:100D40002587E8CF21E0F8012687F8012685E22FE4
:100D5000F0E0E558FF4FE491332319F0223009F415
:100D6000EF5FF0E08E179F0720F08E1B9F0B2F5F29
:100D7000EACF8F5FF80187871092320210925402F7
:100D80000E94EF01F80112821182148213821682EE
:100D90001582108617821286118614861386109388
:100DA0002902009328028EE090E00E94950B7C01BE
:100DB00011E01093310289E68093530210923202BF
:100DC000109254028BE690E00E949D0480E090E037
:100DD0000E949D0481E00E946C05F0922702E0923F
:100DE000260286E090E00E94950B7C011093310270
:100DF0008EE180935302109232021092540282E0EC
:100E000090E00E949D0480E090E00E949D0481E0BB
:100E10000E946C05F0922502E092240282E00E947A
:100E2000C90560E082E00E94710183E00E94C9056B
:100E300061E083E00E94710184E00E94C90560E0E6
:100E400084E00E947101E091AC02F091AD0282E079
:100E50008083E091A802F091A9021082E091AA0299
:100E6000F091AB028FEC80831092B402E091B0025B
:100E7000F091B10286E08083E091AE02F091AF0282
:100E8000808180618083E091AE02F091AF02808129
:100E900088608083E091AE02F091AF02808180682B
:100EA0008083E091AE02F091AF0280818F7D8083DC
:100EB00082E491E00E94A20482E591E00E94A204F3
:100EC0000E94EE02DC01CB0188519C4FAF4FBF4F17
:100ED00080932D0290932E02A0932F02B0933002A4
:100EE00010922C0210922B0201E01AEFF8EEEF2E76
:100EF000F3E0FF2EA4E6CA2ED12CB0E9AB2EBB2422
:100F0000B3940E94EE0220912D0230912E02409166
:100F10002F0250913002261737074807590708F06B
:100F2000B5C28CE992E00E94C70003970CF44BC055
:100F30000E94E805FC0197FD11C08D32910591F0EA
:100F4000C0970A9778F0E0919C02F0919D0202848C
:100F5000F385E02D8CE992E00995EACF80E090E0FE
:100F6000DC012DC020E030E0A901912CE130F10539
:100F700009F08FC2E0919C02F0919D020284F385FA
:100F8000E02D8CE992E02D8F3C8F4A8F5B8F099585
:100F90000E94E805FC01C0972D8D3C8D4A8D5B8D2C
:100FA0000A9720F3E130F10509F3992009F491C281
:100FB00088279927DC01821B930BA40BB50B909318
:100FC0002C0280932B0260912A02F1E06F2760933C
:100FD0002A0284E00E9471018090280290902902E8
:100FE0000093310228E620935302109232021092AD
:100FF000540260E089E393E00E94610281E00E9474
:101000006C0541E067E088E60E9428051092230203
:101010008093220289E393E00E941D028F77982F2C
:1010200092959F70282F919F200D112489E393E0C2
:101030002D8F0E941D02AC01552724E05595479540
:101040002A95E1F7382F149F300D112489E393E09E
:101050003C8F0E941D02AC01552734E05595479501
:101060003A95E1F7682F149F600D112489E393E00E
:101070006B8F0E941D0289E393E00E941D02AC0168
:10108000552764E0559547956A95E1F7782F149FA9
:10109000700D1124798F89E393E00E941D02AC0149
:1010A000552774E0559547957A95E1F7782F149F69
:1010B000700D112489E393E07A8F0E941D02AC0128
:1010C0005527E4E055954795EA95E1F7149F800D83
:1010D0001124482F50E04053584FF40185877A8DF2
:1010E0007687898D87876B8D608B3C8D318B2D8DBD
:1010F000228B822F90E092838183832F90E09483D0
:101100008383862F90E096838583872F90E0928754
:10111000818754874387298D822F90E0908787832A
:1011200085E591E00E94F504F401858196810E9495
:101130001E058BE591E00E94F504F4018381948102
:101140000A9724F48DE591E00E94F504F40183816F
:1011500094810E941E058BE591E00E94F504F40144
:10116000818192810A9724F48DE591E00E94F50433
:10117000F401818192810E941E0588EC91E00E9419
:10118000F504F401878190850E941E058FE591E0AA
:101190000E94F504F401818592850E941E058FE569
:1011A00091E00E94F504F401838594850E941E0558
:1011B00081E691E00E94F504F401378181859285F2
:1011C00083849484E6E0F1E0DE01119628E1019049
:1011D0000D922A95E1F7FC01FF273197EE0FFF1FD3
:1011E00041E050E04C0F5D1FE40FF51F60817181FD
:1011F000FB01E30FF11D9F01E1E0F0E0833010F40B
:10120000E0E0F0E0C40183709927892B69F4C40100
:10121000B6010E94590B892B49F4C401B5010E9403
:10122000590B41E0892B19F040E001C041E04E9F8D
:10123000B0014F9F700D1124620F731F80E090E08A
:101240004AE00E94B40482E591E00E94A2048090EA
:101250002602909027020093310289E68093530280
:1012600010923202109254028BE390E00E949D048F
:1012700080E00E946C0541E066E089E60E94280556
:10128000109223028093220289E393E00E941D02C0
:10129000282F89E393E02D8F0E941D022D8D322E81
:1012A000212C82299329F4019183808389E393E09F
:1012B0000E941D02282F89E393E02D8F0E941D02BA
:1012C0002D8D522E412C84299529F40193838283FC
:1012D00089E393E00E941D02282F89E393E02D8F7C
:1012E0000E941D022D8D722E612C86299729F401F2
:1012F0009583848381E791E00E94F50481E891E081
:101300000E94F504F401808191810E941E0588E805
:1013100091E00E94F504F401828193810E941E05F0
:1013200082E991E00E94F504F40164817581072E41
:10133000000C880B990B97FF03C00E94F70403C0B1
:101340004AE00E94B40482E591E00E94A2048090E9
:10135000240290902502009331028EE18093530283
:10136000109232021092540283E090E00E949D0499
:1013700081E00E946C0541E066E08EE10E94280554
:10138000109223028093220290E00697B4F189E341
:1013900093E00E941D02F4011082818389E393E0AF
:1013A0000E941D02F40120813181822B932B9183B5
:1013B000808389E393E00E941D02F40114828583F7
:1013C00089E393E00E941D02F40124813581822B80
:1013D000932B9583848389E393E00E941D02F4019B
:1013E0001282838389E393E00E941D02F40122812B
:1013F0003381822B932B938382838CE991E00E942B
:10140000F504F401808191810E941E0585EA91E036
:101410000E94F504F401828193810E941E058FEAE7
:1014200091E00E94F504F401848195810E941E05DB
:1014300089EB91E00E94F5048AEC91E00E94F504AA
:1014400080912B0290912C020E941E0582E591E072
:101450000E94F5040E94EE0220912B0230912C0292
:10146000A701421B530B9A01032E000C440B550B92
:10147000DC01CB01820F931FA41FB51F80932D02A7
:1014800090932E02A0932F02B09330020E94670126
:1014900038CDED32F105D1F0CF01C0970A9708F0B1
:1014A00069CDAAE0B0E00E94080B9F01FF0F440B3A
:1014B000550BDC01CB01820F931FA41FB51F9C01AC
:1014C000AD01205331094109510954CD9924939418
:1014D00051CDDA01C90173CD809145039091460346
:1014E0000C942A0C10929F0210929E0288EE93E0B8
:1014F000A0E0B0E08093A0029093A102A093A2028A
:10150000B093A30222E231E030939D0220939C022B
:1015100025EC30E03093A9022093A80224EC30E0BF
:101520003093AB022093AA0220EC30E03093AD025E
:101530002093AC0221EC30E03093AF022093AE0256
:1015400022EC30E03093B1022093B00226EC30E080
:101550003093B3022093B2021092B5021092B602F9
:101560001092B7021092B80210923C0310923B0303
:1015700080933D0390933E03A0933F03B0934003B9
:1015800084E391E090933A038093390310924603E9
:1015900010924503109248031092470310924A0399
:1015A0001092490361E070E080E090E00E94C20C7C
:1015B000009789F090934603809345031092480367
:1015C000109247032091490330914A03232BC1F421
:1015D000FC01108215C0809145039091460300974D
:1015E00011F00E942A0C10924603109245031092AB
:1015F0004A0310924903109248031092470308953A
:1016000010924A031092490364E571E00C949A0D1C
:101610000E944A0BA59F900DB49F900DA49F800D32
:10162000911D112408952F923F924F925F926F92D5
:101630007F928F929F92AF92BF92CF92DF92EF9262
:10164000FF920F931F93CF93DF93CDB7DEB7CA1BE3
:10165000DB0B0FB6F894DEBF0FBECDBF09942A880E
:10166000398848885F846E847D848C849B84AA84B6
:10167000B984C884DF80EE80FD800C811B81AA8143
:10168000B981CE0FD11D0FB6F894DEBF0FBECDBF0E
:10169000ED010895A29FB001B39FC001A39F700DFB
:1016A000811D1124911DB29F700D811D1124911D6A
:1016B0000895AA1BBB1B51E107C0AA1FBB1FA61799
:1016C000B70710F0A61BB70B881F991F5A95A9F7EB
:1016D00080959095BC01CD010895A1E21A2EAA1B18
:1016E000BB1BFD010DC0AA1FBB1FEE1FFF1FA217D2
:1016F000B307E407F50720F0A21BB30BE40BF50BCF
:10170000661F771F881F991F1A9469F76095709557
:10171000809590959B01AC01BD01CF010895EE0F1E
:10172000FF1F0590F491E02D0994CF93DF93823051
:10173000910510F482E090E0E0914D03F0914E03AA
:1017400020E030E0C0E0D0E0309711F140815181DD
:1017500048175907C0F04817590761F482819381EF
:10176000209719F09B838A832BC090934E0380931C
:101770004D0326C02115310519F04217530718F4FF
:101780009A01BE01DF01EF010280F381E02DDCCF81
:101790002115310509F1281B390B2430310590F44E
:1017A00012968D919C9113976115710521F0FB01A3
:1017B0009383828304C090934E0380934D03FD0175
:1017C000329644C0FD01E20FF31F819391932250A2
:1017D00031092D933C933AC020914B0330914C0337
:1017E000232B41F4209102013091030130934C03EB
:1017F00020934B0320910001309101012115310507
:1018000041F42DB73EB74091040150910501241BCE
:10181000350BE0914B03F0914C03E217F307A0F472
:101820002E1B3F0B2817390778F0AC014E5F5F4F36
:101830002417350748F04E0F5F1F50934C03409319
:101840004B038193919302C0E0E0F0E0CF01DF9180
:10185000CF9108950F931F93CF93DF93009709F4CF
:101860008CC0FC0132971382128200914D031091BB
:101870004E030115110581F420813181820F931FE0
:1018800020914B0330914C032817390779F5F093D9
:101890004C03E0934B0371C0D80140E050E0AE1719
:1018A000BF0750F412962D913C911397AD0121156D
:1018B000310509F1D901F3CF9D01DA013383228388
:1018C00060817181860F971F8217930769F4EC017D
:1018D00028813981260F371F2E5F3F4F31832083A8
:1018E0008A819B8193838283452B29F4F0934E0355
:1018F000E0934D0342C01396FC93EE931297ED01D3
:10190000499159919E01240F351FE217F30771F495
:1019100080819181840F951F029611969C938E93DE
:101920008281938113969C938E931297E0E0F0E06E
:10193000D80112968D919C911397009719F0F80198
:101940008C01F6CF8D919C9198012E5F3F4F820FB5
:10195000931F20914B0330914C032817390769F4EA
:10196000309729F410924E0310924D0302C0138257
:10197000128210934C0300934B03DF91CF911F9180
:101980000F910895A0E0B0E0E8ECFCE00C94170B98
:10199000EC01009721F4CB010E94950BB8C0FC012B
:1019A000E60FF71F9C0122503109E217F30708F4F4
:1019B000ACC0D9010D911C91119706171707B0F013
:1019C0000530110508F49FC0C801049786179707D2
:1019D00008F499C002501109061B170B01931193CB
:1019E0006D937C93CF010E942A0C8DC05B01A01ADD
:1019F000B10A4C01800E911EA0914D03B0914E038F
:101A000040E050E0E12CF12C109709F44AC0A815F1
:101A1000B905D1F56D907C901197630182E0C80EF5
:101A2000D11CCA14DB0480F1A3014A195B096A01C5
:101A300082E0C80ED11C1296BC9012971396AC91FE
:101A4000B5E0CB16D10440F0B282A383518340832A
:101A5000D9016D937C930AC00E5F1F4FC301800FA5
:101A6000911FF90191838083EB2DFA2FE114F1048A
:101A700031F0D7011396FC93EE93129744C0F09384
:101A80004E03E0934D033FC08D919C9111974817F1
:101A9000590708F4AC017D0112960D90BC91A02D60
:101AA000B3CF80914B0390914C0388159905E1F4D5
:101AB00046175707C8F480910001909101010097E3
:101AC00041F48DB79EB74091040150910501841BEC
:101AD000950BE817F907C8F4F0934C03E0934B0318
:101AE000F901718360830FC0CB010E94950B7C01CB
:101AF000009759F0A801BE010E94910DCE010E94ED
:101B00002A0CC70104C0CE0102C080E090E0CDB72E
:101B1000DEB7EEE00C94330B81E090E0F8940C9487
:101B2000A10DFB01DC0102C001900D92415050401B
:101B3000D8F70895FB01DC0101900D920020E1F738
:101B4000089510E0C3E6D0E004C0FE010E948F0BB0
:0C1B50002196C436D107C9F7F894FFCFE6
:101B5C0000004F03800000001F003B005A0078007B
:101B6C009700B500D400F300110130014E010000C4
:101B7C000000FE00720496004501C700A500B900E4
:101B8C00000000006102310291020D028E001D0264
:101B9C000E027374617274696E6720736572696189
:101BAC006C000D0A005254433A20003A0030002FCA
:101BBC0000202020204A756C69616E4461793A20BE
:101BCC0000416363656C65726F6D657465723A2074
:101BDC0000416358203D2000207C20416359203D6A
:101BEC002000207C2041635A203D20000D436F6D66
:101BFC0070583A20002020436F6D70593A20002015
:101C0C0020436F6D705A3A20002020202020202085
:101C1C002020202020202020200064656C61793A4F
:021C2C00200096
:107800000C94343C0C94513C0C94513C0C94513CE1
:107810000C94513C0C94513C0C94513C0C94513CB4
:107820000C94513C0C94513C0C94513C0C94513CA4
:107830000C94513C0C94513C0C94513C0C94513C94
:107840000C94513C0C94513C0C94513C0C94513C84
:107850000C94513C0C94513C0C94513C0C94513C74
:107860000C94513C0C94513C11241FBECFEFD8E036
:10787000DEBFCDBF11E0A0E0B1E0ECE9FFE702C060
:1078800005900D92A230B107D9F712E0A2E0B1E065
:1078900001C01D92AD30B107E1F70E942D3D0C945F
:1078A000CC3F0C94003C982F959595959595959582
:1078B000905D8F708A307CF0282F295A8091C0000B
:1078C00085FFFCCF9093C6008091C00085FFFCCF60
:1078D0002093C6000895282F205DF0CF982F809127
:1078E000C00085FFFCCF9093C6000895EF92FF92F1
:1078F0000F931F93EE24FF2487018091C00087FD22
:1079000017C00894E11CF11C011D111D81E4E8164B
:1079100082E4F8068FE0080780E0180770F3E09132
:107920000401F091050109958091C00087FFE9CF1E
:107930008091C6001F910F91FF90EF9008950E94D3
:10794000763C982F8091C00085FFFCCF9093C600B5
:1079500091362CF490330CF09053892F089597555D
:10796000892F08951F930E949F3C182F0E949F3CCF
:107970001295107F810F1F9108951F93182F882350
:1079800021F00E94763C1150E1F71F9108951F935A
:10799000182F0E94763C803249F0809103018F5F5E
:1079A000809303018530C1F01F9108958091C0003C
:1079B00085FFFCCF84E18093C6008091C00085FFE5
:1079C000FCCF1093C6008091C00085FFFCCF80E102
:1079D0008093C6001F910895E0910401F091050184
:1079E00009951F9108950E94763C803241F0809164
:1079F00003018F5F80930301853081F008958091AA
:107A0000C00085FFFCCF84E18093C6008091C00058
:107A100085FFFCCF80E18093C6000895E0910401CA
:107A2000F09105010995089540E951E08823A1F0FE
:107A30002D9A28EE33E0FA013197F1F721503040CA
:107A4000D1F72D9828EE33E0FA013197F1F7215064
:107A50003040D1F7815061F708953F924F925F9285
:107A60006F927F928F929F92AF92BF92CF92DF924E
:107A7000EF92FF920F931F93CF93DF93000080E16B
:107A80008093C4001092C50088E18093C10086E015
:107A90008093C2005098589A259A81E00E94143D24
:107AA00024E1F22E9EE1E92E85E9D82E0FE0C02ECA
:107AB00010E1B12EAA24A394B1E49B2EA6E58A2E50
:107AC000F2E57F2EE0E26E2E79E4572E63E5462E36
:107AD00050E5352E0E94763C8033B1F18133B9F107
:107AE000803409F46FC0813409F476C0823409F41B
:107AF00085C0853409F488C0803531F1823521F1A3
:107B0000813511F1853509F485C0863509F48DC0BC
:107B1000843609F496C0843709F403C1853709F423
:107B200072C1863709F466C0809103018F5F80932C
:107B30000301853079F6E0910401F0910501099582
:107B40000E94763C803351F60E94F33CC3CF0E94E2
:107B5000763C803249F78091C00085FFFCCFF092DF
:107B6000C6008091C00085FFFCCF9092C600809136
:107B7000C00085FFFCCF8092C6008091C00085FFC9
:107B8000FCCF7092C6008091C00085FFFCCF609250
:107B9000C6008091C00085FFFCCF5092C600809146
:107BA000C00085FFFCCF4092C6008091C00085FFD9
:107BB000FCCF3092C6008091C00085FFFCCFB09210
:107BC000C60088CF0E94763C863808F4BDCF0E945C
:107BD000763C0E94F33C7ECF0E94763C803809F4CC
:107BE0009CC0813809F40BC1823809F43CC1883942
:107BF00009F48FC080E00E94C73C6CCF84E10E94F2
:107C0000BD3C0E94F33C66CF85E00E94BD3C0E94D3
:107C1000F33C60CF0E94763C809306010E94763C44
:107C2000809307010E94F33C55CF0E94763C80333D
:107C300009F41DC183E00E94BD3C80E00E94C73C66
:107C400049CF0E94763C809309020E94763C809343
:107C5000080280910C028E7F80930C020E94763C79
:107C6000853409F415C18091080290910902892B8D
:107C700089F000E010E00E94763CF801E85FFE4FDA
:107C800080830F5F1F4F80910802909109020817AF
:107C9000190788F30E94763C803209F045CF809125
:107CA0000C0280FF01C16091060170910701660F0F
:107CB000771F7093070160930601A0910802B091AD
:107CC00009021097C9F0E8E0F1E09B01AD014E0F09
:107CD0005F1FF999FECF32BD21BD819180BDFA9A17
:107CE000F99A2F5F3F4FE417F50799F76A0F7B1F4B
:107CF00070930701609306018091C00085FFFCCF5F
:107D0000F092C6008091C00085FFFCCFB092C60003
:107D1000E1CE83E00E94C73CDDCE82E00E94C73CFA
:107D2000D9CE0E94763C809309020E94763C8093D3
:107D300008028091060190910701880F991F909386
:107D40000701809306010E94763C853409F4A6C0A1
:107D500080910C028E7F80930C020E94763C8032D0
:107D600009F0B8CE8091C00085FFFCCFF092C6002C
:107D7000609108027091090261157105B9F140E046
:107D800050E080910C02A82FA170B82FB27011C0E2
:107D9000BB2309F45CC0E0910601F0910701319624
:107DA000F0930701E09306014F5F5F4F46175707B7
:107DB000E8F4AA2369F3F999FECF209106013091E6
:107DC000070132BD21BDF89A90B58091C00085FFB2
:107DD000FCCF9093C6002F5F3F4F30930701209355
:107DE00006014F5F5F4F4617570718F38091C00099
:107DF00085FDE5CE8091C00085FFF8CFE0CE81E023
:107E00000E94C73C67CE0E94763C803209F08CCE3F
:107E10008091C00085FFFCCFF092C6008091C00029
:107E200085FFFCCFE092C6008091C00085FFFCCFAB
:107E3000D092C6008091C00085FFFCCFC092C600E2
:107E40008091C00085FFFCCFB092C60043CEE09188
:107E50000601F091070194918091C00085FFFCCF4D
:107E60009093C6009CCF80E10E94C73C33CE0E9415
:107E7000763C0E94763C182F0E94763C112309F430
:107E800083C0113009F484C08FE00E94C73C22CE29
:107E900080910C02816080930C02E5CE80910C02EF
:107EA000816080930C0259CF809107018823880F4D
:107EB000880B8A2180930B02809106019091070123
:107EC000880F991F90930701809306018091080203
:107ED00080FF09C080910802909109020196909359
:107EE000090280930802F894F999FECF1127E091D6
:107EF0000601F0910701C8E0D1E08091080290915D
:107F00000902103091F40091570001700130D9F34B
:107F100003E000935700E89500915700017001308D
:107F2000D9F301E100935700E89509901990009169
:107F3000570001700130D9F301E000935700E89534
:107F40001395103498F011270091570001700130FB
:107F5000D9F305E000935700E895009157000170B0
:107F60000130D9F301E100935700E895329602976A
:107F700009F0C7CF103011F00296E5CF112480919F
:107F8000C00085FFB9CEBCCE8EE10E94C73CA2CD19
:0C7F900085E90E94C73C9ECDF894FFCF0D
:027F9C00800063
:040000030000780081
:00000001FF