:100000000C9464000C948C000C948C000C948C0068
:100010000C948C000C948C000C948C000C948C0030
:100020000C948C000C948C000C948C000C948C0020
:100030000C948C000C948C000C948C000C948C0010
:100040000C94DC020C948C000C9452020C942C0244
:100050000C948C000C948C000C948C000C948C00F0
:100060000C9426030C948C001F1C1F1E1F1E1F1FA8
:100070001E1F1E1F000000080002010000030407ED
:100080000000000000000000000000002500280023
:100090002B0000000000240027002A0004040404B0
:1000A0000404040402020202020203030303030322
:1000B00001020408102040800102040810200102FF
:1000C000040810203F0B390B11241FBECFEFD8E0DE
:1000D000DEBFCDBF23E0A2ECB1E001C01D92AF387E
:1000E000B207E1F711E0A0E0B1E0EEE0FDE102C00F
:1000F00005900D92A23CB107D9F710E0C3E6D0E01D
:1001000004C02197FE010E94680CC236D107C9F7CE
:100110000E945F060C947A0E0C940000FC01538D33
:10012000448D252F30E0842F90E0821B930B5417D1
:1001300010F0CF96089501970895FC01918D828D5E
:10014000981761F0828DDF01A80FB11D5D968C912B
:10015000928D9F5F9F73928F90E008958FEF9FEF36
:100160000895FC01918D828D981731F0828DE80FF2
:10017000F11D858D90E008958FEF9FEF0895FC01AC
:10018000918D228D892F90E0805C9F4F821B910979
:100190008F739927089584E992E00E94BF0021E0BF
:1001A000892B09F420E0822F0895FC01848DDF0162
:1001B000A80FB11DA35ABF4F2C91848D90E00196DA
:1001C0008F739927848FA689B7892C93A089B189C9
:1001D0008C9180648C93938D848D981306C00288D3
:1001E000F389E02D80818F7D80830895EF92FF92C7
:1001F0000F931F93CF93DF93EC0181E0888F9B8D4A
:100200008C8D981305C0E889F989808185FD24C00B
:10021000F62E0B8D10E00F5F1F4F0F731127E02E8E
:100220008C8DE8120CC00FB607FCFACFE889F9896B
:10023000808185FFF5CFCE010E94D500F1CF8B8D57
:10024000FE01E80FF11DE35AFF4FF0820B8FEA89A0
:10025000FB898081806207C0EE89FF896083E8891D
:10026000F98980818064808381E090E0DF91CF9183
:100270001F910F91FF90EF900895CF93DF93EC01C2
:10028000888D8823C9F0EA89FB89808185FD05C0B6
:10029000A889B9898C9186FD0FC00FB607FCF5CFF0
:1002A000808185FFF2CFA889B9898C9185FFEDCF38
:1002B000CE010E94D500E7CFDF91CF91089580E075
:1002C00090E0892B29F00E94CB0081110C94000052
:1002D000089585ED8093BC008091BC0084FDFCCF27
:1002E00010926F0208954091FB01262F30E0240FF9
:1002F000311D21323105DCF420916F022430C9F424
:10030000FC0180E090E0861758F43091FB012191C8
:10031000DC01A752BE4FA30FB11D2C930196F3CF62
:100320008091FB01680F6093FB0180E0089581E0FC
:10033000089582E008950895E091C2018091C3017B
:10034000E81730F4F0E0E75DFD4F808190E008951C
:100350008FEF9FEF08959091C2018091C30198178C
:1003600050F4E92FF0E0E75DFD4F208130E09F5F22
:100370009093C20102C02FEF3FEFC9010895809111
:10038000C30190E02091C201821B91090895CF9290
:10039000DF92EF92FF920F931F93CF93DF937C0135
:1003A000262F972F8A0180917002882391F0C62F03
:1003B000D72F6E01C40ED51ECC15DD0571F06991E5
:1003C000D701ED91FC910190F081E02DC7010995D5
:1003D000F3CF642F822F0E947301C801DF91CF9168
:1003E0001F910F91FF90EF90DF90CF900895CF93E2
:1003F000DF931F92CDB7DEB769832091700222236D
:10040000D1F020919302203240F021E030E0FC0155
:100410003383228380E090E015C080917102E82F41
:10042000F0E0EE58FD4F998190838F5F80937102C9
:100430008093930205C061E0CE0101960E94730192
:1004400081E090E00F90DF91CF910895089580E0D2
:1004500090E008950E94650E1F920F920FB60F92C2
:1004600011242F933F934F935F936F937F938F93B9
:100470009F93AF93BF93EF93FF9384E992E00E9421
:10048000D500FF91EF91BF91AF919F918F917F9197
:100490006F915F914F913F912F910F900FBE0F90F1
:1004A0001F9018951F920F920FB60F9211242F9341
:1004B0008F939F93EF93FF93E091A402F091A50295
:1004C0008081E091AA02F091AB0282FD12C090817E
:1004D0008091AD028F5F8F732091AE02821751F031
:1004E000E091AD02F0E0EC56FD4F958F8093AD02A8
:1004F00001C08081FF91EF919F918F912F910F907B
:100500000FBE0F901F90189590E0FC01EC58FF4F24
:100510003491FC01E055FF4F2491FC01E456FF4F5C
:10052000E491EE2309F43BC0332339F1333091F0E9
:1005300038F43130A9F0323001F584B58F7D12C026
:10054000373091F03830A1F03430B9F48091800028
:100550008F7D03C0809180008F77809380000DC0D5
:1005600084B58F7784BD09C08091B0008F7703C0B8
:100570008091B0008F7D8093B000F0E0EE0FFF1F00
:10058000E857FF4FA591B4918FB7F894EC916111A2
:1005900003C020952E2301C02E2B2C938FBF0895CE
:1005A0002FB7F8946091250270912602809127025E
:1005B000909128022FBF08951F920F920FB60F92AD
:1005C00011242F933F938F939F93AF93BF93809169
:1005D000250290912602A0912702B0912802309125
:1005E000240223E0230F2D3720F40196A11DB11D15
:1005F00005C026E8230F0296A11DB11D20932402F9
:100600008093250290932602A0932702B09328029C
:100610008091200290912102A0912202B0912302A8
:100620000196A11DB11D8093200290932102A093F9
:100630002202B0932302BF91AF919F918F913F917E
:100640002F910F900FBE0F901F9018951F920F9231
:100650000FB60F9211242F933F934F935F936F9395
:100660007F938F939F93AF93BF93EF93FF9380916B
:10067000B900887F803609F49CC068F5883209F497
:100680005BC090F4803109F454C038F4882309F435
:10069000F6C0883009F44DC0F6C0883109F44CC06A
:1006A000803209F45DC0EFC0803409F468C048F4BA
:1006B000803309F455C0883309F0E5C080936D029A
:1006C000D8C0803509F44FC0883509F45DC088343E
:1006D00009F0D9C0D6C0883909F4C7C0A8F4883752
:1006E00009F467C038F4883609F463C0803709F428
:1006F00060C0C9C0883809F4B8C0803909F45FC047
:10070000803809F0C0C05BC0803B09F486C038F473
:10071000803A09F466C0883A09F47FC0B4C0803CCE
:1007200009F4A7C0883C09F4A4C0883B09F48AC036
:10073000AAC080914A0210C090916C0280916B0215
:10074000981770F5E0916C0281E08E0F80936C0237
:10075000F0E0E55BFD4F80818093BB0085EC86C0B7
:1007600080936D028EC0E0916C0281E08E0F8093C9
:100770006C028091BB00F0E0E55BFD4F80839091BF
:100780006C0280916B026EC0E0916C0281E08E0F72
:1007900080936C028091BB00F0E0E55BFD4F8083AD
:1007A00080916E0281116DC081E08093490284EADC
:1007B00061C083E080936F0210921F02CFCF8091BF
:1007C0001F02803208F051C0E0911F0281E08E0FBD
:1007D00080931F028091BB00F0E0E150FE4F8083C8
:1007E000BDCF85EC8093BC0010926F0280911F02F8
:1007F000803230F4E0911F02F0E0E150FE4F1082B1
:1008000060911F0270E0E091FD01F091FE018FEF19
:1008100091E0099510921F0236C084E080936F0228
:100820001092FC011092FB01E091F901F091FA01A4
:1008300009958091FB01811105C081E08093FB0146
:100840001092D901E091FC0181E08E0F8093FC01B0
:10085000F0E0E752FE4F80818093BB009091FC0155
:100860008091FB01981708F479CF85E88093BC004C
:100870000AC085EC8093BC0010926F0204C01092F5
:100880006D020E946901FF91EF91BF91AF919F911D
:100890008F917F916F915F914F913F912F910F9029
:1008A0000FBE0F901F90189510926F0281E08093F9
:1008B0006E021092490261E082E10E94840261E0CE
:1008C00083E10E948402E9EBF0E080818E7F8083E7
:1008D00080818D7F808388E48093B80085E4809355
:1008E000BC000895CF92DF92EF92FF920F931F9377
:1008F000CF93DF936C017A018B01C0E0D0E0CE157D
:10090000DF0589F0D8016D918D01D601ED91FC9143
:100910000190F081E02DC6010995892B11F47E012B
:1009200002C02196ECCFC701DF91CF911F910F91AB
:10093000FF90EF90DF90CF900895E4E9F2E0A08976
:10094000B18982E08C93A485B5851C92A685B78574
:100950008FEC8C93108EA489B58986E08C93A28944
:10096000B3898C9180618C93A289B3898C918860C2
:100970008C93A289B3898C9180688C930288F389C7
:10098000E02D80818F7D80830895682F89E793E033
:100990000C94F701382F209193029091920221320A
:1009A00008F049C080916F028111FCCF42E0409372
:1009B0006F0230936E023FEF30936D0210926C0223
:1009C00020936B02A2E7B2E04BE452E0FA013E2F23
:1009D000341B321718F43D913193F9CF10924A022B
:1009E00020914A02990F922B90934A0290914902CA
:1009F000913061F41092490290914A029093BB00A9
:100A00009091BC0093FDF8CF95EC01C095EE9093CA
:100A1000BC0090916F029230E1F390916D029F3F84
:100A200079F080916D02803241F080916D028033C7
:100A300031F084E005C081E003C082E001C083E0C2
:100A4000109271021092930210927002089581E048
:100A50000C94CA0490916F029111FCCF91E0909395
:100A60006F0240936E022FEF20936D0210926C0282
:100A7000260F20936B0290934A0290914A02880FAE
:100A8000892B80934A0280914902813061F410924F
:100A9000490280914A028093BB008091BC0083FD93
:100AA000F8CF85EC01C085EE8093BC0080916F0289
:100AB0008130E1F380916C02861710F460916C0232
:100AC000ABE4B2E029E232E0F9018E2F821B8617F7
:100AD00018F48D918193F9CF862F089590E0FC0151
:100AE000E055FF4F2491FC01E456FF4F8491882389
:100AF00099F090E0880F991FFC01EE56FF4FA591E9
:100B0000B491FC01E857FF4F859194918FB7F89409
:100B1000EC91E22BEC938FBF08950F931F930E94EB
:100B2000D00260939C0270939D0280939E029093EA
:100B30009F02E0919402F09195020484F585E02DE6
:100B400084E992E0099597FF1FC00E94D0020091AE
:100B50009C0210919D0220919E0230919F02DC0127
:100B6000CB01801B910BA20BB30B0091980210914B
:100B7000990220919A0230919B0280179107A20757
:100B8000B307B8F28FEF9FEF1F910F910895611592
:100B9000710579F0FB0101900020E9F73197AF0171
:100BA000461B570BDC01ED91FC910280F381E02D97
:100BB000099480E090E008954F925F926F927F9247
:100BC000EF92FF920F931F93CF93DF93CDB7DEB7D2
:100BD000A1970FB6F894DEBF0FBECDBF7C01FA011E
:100BE000CB0119A2223008F42AE08E010F5D1F4FBD
:100BF000422E512C612C712CBF01A30192010E9445
:100C0000F50BF901CA01015011096A3014F4605D55
:100C100001C0695CD8016C93232B242B252B61F731
:100C2000B801C7010E94C705A1960FB6F894DEBFB0
:100C30000FBECDBFDF91CF911F910F91FF90EF902D
:100C40007F906F905F904F900895CF92DF92EF92D8
:100C5000FF92CF93DF936B017C01E0919402F091BE
:100C600095020190F081E02D6DE284E992E0099512
:100C7000EC0144275527BA014C195D096E097F091B
:100C80002AE084E992E00E94DC058C0F9D1FDF9131
:100C9000CF91FF90EF90DF90CF900895AC01990F26
:100CA000660B770B77FF04C0CB01BA010C942506C5
:100CB0002AE084E992E00C94DC050C94C705CF93FC
:100CC000DF9300D000D000D0CDB7DEB7789484B5E4
:100CD000826084BD84B5816084BD85B5826085BD38
:100CE00085B5816085BD80916E00816080936E00C6
:100CF00010928100809181008260809381008091B8
:100D00008100816080938100809180008160809368
:100D100080008091B10084608093B1008091B00028
:100D200081608093B00080917A00846080937A0023
:100D300080917A00826080937A0080917A0081604D
:100D400080937A0080917A00806880937A00109274
:100D5000C1001092750310927603109277031092DF
:100D600078031092330310923403109235031092DB
:100D700036030E94D0022B013C014B015C0128EBA1
:100D8000820E2BE0921EA11CB11C0E94D0026415A1
:100D900075058605970528F086169706A806B906F4
:100DA000A0F784E992E090937403809373030E9408
:100DB0009D040E94D00260933303709334038093A8
:100DC0003503909336036AE271E08091730390914A
:100DD00074030E945D060E94D0022B013C014B016E
:100DE0005C013AE0830E911CA11CB11C0E94D00250
:100DF000641575058605970528F086169706A806DA
:100E0000B906A0F781E0809347031092C2011092C7
:100E1000C30110927102109293020E94540483E164
:100E200090E00E946E0C7C0180E1F701828B8CE1E6
:100E3000818B86E0808B158681E697E963E97EEFFA
:100E4000F7012585422F437031E009F030E0432F50
:100E500050E0FA01E359FE4F8E179F0748F0FB015F
:100E6000E41BF50B8E0F9F1F2F5FF7012587E8CF3F
:100E700021E0F7012687F7012685E22FF0E0E95906
:100E8000FF4FE491332319F0223009F4EF5FF0E0D3
:100E90008E179F0720F08E1B9F0B2F5FEACF8F5F6F
:100EA000F701878710927102109293020E945404F6
:100EB000DD24D394D092700288E6B82EB0929202CC
:100EC000109271021092930260E089E793E00E9411
:100ED000F70160E089E793E00E94F70163E389E7A7
:100EE00093E00E94F70164E189E793E00E94F70133
:100EF00060E089E793E00E94F70166E189E793E00B
:100F00000E94F70166E089E793E00E94F70168E13B
:100F100089E793E00E94F7010E942705D0927002B2
:100F2000B092920210927102109293026FE089E7E0
:100F300093E00E94F7010E94270541E061E088E606
:100F40000E942A058093C30189E793E00E94AB01C8
:100F5000C82ED0927002B09292021092710210923A
:100F600093026FE089E793E00E94F7016C2D6F77A1
:100F700089E793E00E94F7010E942705F70112829A
:100F800011821482138216821582108617821286AD
:100F9000118614861386F092C501E092C4018EE09A
:100FA00090E00E946E0C7C01D092700289E68093E2
:100FB000920210927102109293028BE690E00E94CE
:100FC000C50480E090E00E94C50481E00E94CA044C
:100FD000F092C901E092C80186E090E00E946E0C98
:100FE0007C01D09270028EE1809392021092710285
:100FF0001092930282E090E00E94C50480E090E0AD
:101000000E94C5040E942705F092C701E092C60124
:1010100082E00E946E0560E082E00E94840283E02C
:101020000E946E0561E083E00E94840284E00E94D9
:101030006E0560E084E00E9484020E949D046CE3DF
:1010400071E084E992E00E94C70569E371E084E9F8
:1010500092E00E94C7050E94D002DC01CB018851BA
:101060009C4FAF4FBF4F8093CD019093CE01A09383
:10107000CF01B093D0011092CC011092CB0194EF2C
:10108000892E99249394A12CB12C0E94D002672B15
:10109000682B692B41F40E94D002623071058105F2
:1010A000910508F418C10E94D0026093D501709395
:1010B000D6018093D7019093D8014090D1015090F0
:1010C000D2016090D3017090D40164157505860536
:1010D000970540F46093D1017093D2018093D301BE
:1010E0009093D4014090D1015090D2016090D301EF
:1010F0007090D4019B01AC012419350946095709A8
:1011000029013A013AEF431651046104710408F4CD
:10111000E2C06093D1017093D2018093D301909388
:10112000D40180923F0390924003A0924103B09279
:10113000420310924303109244031092450310920D
:1011400046038091370390913803A0913903B09101
:101150003A0380933B0390933C03A0933D03B093E9
:101160003E030E94D002609337037093380380934C
:10117000390390933A030E94D00260933303709333
:10118000340380933503909336030E94D0022B01E1
:101190003C016CE471E080917303909174030E94B0
:1011A0005D062AE041E050E060E070E0809173036A
:1011B000909174030E94DC0563E571E080917303F4
:1011C000909174030E945D062AE0B301A201809110
:1011D0007303909174030E94DC0565E571E08091D2
:1011E0007303909174030E945D0680913703909180
:1011F0003803A0913903B0913A03B301A201481B0F
:10120000590B6A0B7B0B2AE0809173039091740356
:101210000E94DC0565E571E0809173039091740391
:101220000E945D0640913703509138036091390365
:1012300070913A0380913B0390913C03A0913D0350
:10124000B0913E03481B590B6A0B7B0B2AE080913F
:101250007303909174030E94DC0567E571E080914F
:101260007303909174030E945D060E94D002AB014B
:10127000BC012AE080917303909174030E94DC0505
:10128000E0907303F090740369E571E0C7010E9478
:10129000C70569E371E0C7010E94C7050E94D0023B
:1012A0006B017C012B013C0142E0440E511C611C8E
:1012B000711C0E94D0026C157D058E059F0508F0FB
:1012C000AEC10E94D00260933703709338038093BD
:1012D000390390933A030E94D002C090CD01D09080
:1012E000CE01E090CF01F090D001C616D706E806F7
:1012F000F90608F091C184E992E00E94BF000397CB
:101300000CF44BC00E948D05FC0197FD11C08D327D
:10131000910591F0C0970A9778F0E0919402F091CE
:1013200095020284F385E02D84E992E00995EACFE5
:1013300080E090E0DC012DC020E030E0A901F12C3C
:10134000E130F10509F072C1E0919402F09195024B
:101350000284F385E02D84E992E02B833C834D8366
:101360005E8309950E948D05FC01C0972B813C810D
:101370004D815E810A9720F3E130F10509F3FF20EA
:1013800009F474C188279927DC01821B930BA40BF5
:10139000B50B9093CC018093CB016091CA0151E0D1
:1013A00065276093CA0184E00E948402E090C8012E
:1013B000F090C90181E080937002E9E6E093920227
:1013C00010927102109293028BE390E00E94C50488
:1013D00080E00E94CA0441E066E089E60E942A0596
:1013E0001092C2018093C30189E793E00E94AB0190
:1013F000782E89E793E00E94AB01372C212C8229BB
:101400009329F7019183808389E793E00E94AB01E0
:10141000782E89E793E00E94AB01172D00E0802B26
:10142000912BF7019383828389E793E00E94AB01BC
:10143000782E89E793E00E94AB017A821982298194
:101440003A81822B932BF7019583848360E671E0C8
:1014500084E992E00E945D0660E771E084E992E031
:101460000E945D06F701808191810E944E0667E728
:1014700071E084E992E00E945D06F7018281938128
:101480000E944E0661E871E084E992E00E945D06E8
:10149000F70144815581052E000C660B770B77FF11
:1014A00005C0CB01BA010E94250605C02AE084E9E7
:1014B00092E00E94DC0569E371E084E992E00E9419
:1014C000C705E090C601F090C701F1E0F09370020B
:1014D0002EE120939202109271021092930283E007
:1014E00090E00E94C5040E94270541E066E08EE17D
:1014F0000E942A051092C2018093C30190E00697D2
:10150000B4F189E793E00E94AB01F7011082818377
:1015100089E793E00E94AB01F70120813181822BA2
:10152000932B9183808389E793E00E94AB01F701BD
:101530001482858389E793E00E94AB01F70124813F
:101540003581822B932B9583848389E793E00E94D6
:10155000AB01F7011282838389E793E00E94AB011C
:10156000F70122813381822B932B938382836BE853
:1015700071E084E992E00E945D06F701808191812B
:101580000E944E0664E971E084E992E00E945D06E3
:10159000F701828193810E944E066EE971E084E931
:1015A00092E00E945D06F701848195810E944E06BB
:1015B00068EA71E084E992E00E945D0669EB71E0FF
:1015C00084E992E00E945D068091CB019091CC016C
:1015D0000E944E0669E371E084E992E00E945D0694
:1015E0000E94D0022091CB013091CC0148EE53E013
:1015F000421B530B6A01550FEE08FF08DC01CB01BB
:101600008C0D9D1DAE1DBF1D8093CD019093CE010D
:10161000A093CF01B093D0010E945F0136CD461652
:1016200057066806790608F044CE4BCEED32F10538
:10163000D1F0CF01C0970A9708F086CEAAE0B0E0BB
:101640000E94170C2F01FF0F66087708DC01CB0101
:10165000840D951DA61DB71D9C01AD0120533109B8
:101660004109510971CEFF24F3946ECEDA01C9010C
:1016700090CE80918503909186030C94030D109277
:1016800097021092960288EE93E0A0E0B0E080937B
:10169000980290939902A0939A02B0939B022AE039
:1016A00031E0309395022093940225EC30E03093A2
:1016B000A1022093A00224EC30E03093A3022093F7
:1016C000A20220EC30E03093A5022093A40221EC8A
:1016D00030E03093A7022093A60222EC30E0309352
:1016E000A9022093A80226EC30E03093AB022093AD
:1016F000AA021092AD021092AE021092AF021092A6
:10170000B0021092370310923803109239031092EE
:101710003A0310923B0310923C0310923D03109247
:101720003E0310923F031092400310924103109227
:101730004203109243031092440310924503109207
:10174000460310927C0310927B0380937D03909359
:101750007E03A0937F03B09380038CE191E090938C
:101760007A03809379031092860310928503109276
:1017700088031092870310928A031092890361E014
:1017800070E080E090E00E949B0D009789F09093BC
:10179000860380938503109288031092870320911B
:1017A000890330918A03232BC1F4FC01108215C0F8
:1017B0008091850390918603009711F00E94030D9C
:1017C000109286031092850310928A031092890367
:1017D0001092880310928703089510928A03109242
:1017E00089036BE371E00C94730EA1E21A2EAA1B1D
:1017F000BB1BFD010DC0AA1FBB1FEE1FFF1FA217C1
:10180000B307E407F50720F0A21BB30BE40BF50BBD
:10181000661F771F881F991F1A9469F76095709546
:10182000809590959B01AC01BD01CF0108950E9468
:10183000590CA59F900DB49F900DA49F800D911DF4
:10184000112408952F923F924F925F926F927F9250
:101850008F929F92AF92BF92CF92DF92EF92FF92C0
:101860000F931F93CF93DF93CDB7DEB7CA1BDB0B6C
:101870000FB6F894DEBF0FBECDBF09942A88398811
:1018800048885F846E847D848C849B84AA84B98418
:10189000C884DF80EE80FD800C811B81AA81B98124
:1018A000CE0FD11D0FB6F894DEBF0FBECDBFED0138
:1018B0000895A29FB001B39FC001A39F700D811D29
:1018C0001124911DB29F700D811D1124911D089549
:1018D000EE0FFF1F0590F491E02D0994CF93DF9355
:1018E0008230910510F482E090E0E0918D03F09158
:1018F0008E0320E030E0C0E0D0E0309711F140816D
:10190000518148175907C0F04817590761F482817F
:101910009381209719F09B838A832BC090938E0329
:1019200080938D0326C02115310519F04217530706
:1019300018F49A01BE01DF01EF010280F381E02D6E
:10194000DCCF2115310509F1281B390B2430310575
:1019500090F412968D919C9113976115710521F069
:10196000FB019383828304C090938E0380938D0345
:10197000FD01329644C0FD01E20FF31F8193919364
:10198000225031092D933C933AC020918B03309122
:101990008C03232B41F420910201309103013093F9
:1019A0008C0320938B0320910001309101012115BC
:1019B000310541F42DB73EB7409104015091050126
:1019C000241B350BE0918B03F0918C03E217F30796
:1019D000A0F42E1B3F0B2817390778F0AC014E5F9F
:1019E0005F4F2417350748F04E0F5F1F50938C034D
:1019F00040938B038193919302C0E0E0F0E0CF012C
:101A0000DF91CF9108950F931F93CF93DF930097AA
:101A100009F48CC0FC0132971382128200918D036D
:101A200010918E030115110581F420813181820FFF
:101A3000931F20918B0330918C032817390779F578
:101A4000F0938C03E0938B0371C0D80140E050E029
:101A5000AE17BF0750F412962D913C911397AD012C
:101A60002115310509F1D901F3CF9D01DA01338345
:101A7000228360817181860F971F8217930769F413
:101A8000EC0128813981260F371F2E5F3F4F3183AC
:101A900020838A819B8193838283452B29F4F09351
:101AA0008E03E0938D0342C01396FC93EE9312973E
:101AB000ED01499159919E01240F351FE217F3075B
:101AC00071F480819181840F951F029611969C93E9
:101AD0008E938281938113969C938E931297E0E06C
:101AE000F0E0D80112968D919C911397009719F010
:101AF000F8018C01F6CF8D919C9198012E5F3F4F9C
:101B0000820F931F20918B0330918C032817390784
:101B100069F4309729F410928E0310928D0302C05D
:101B20001382128210938C0300938B03DF91CF9169
:101B30001F910F910895A0E0B0E0E1EAFDE00C9460
:101B4000260CEC01009721F4CB010E946E0CB8C06A
:101B5000FC01E60FF71F9C0122503109E217F30741
:101B600008F4ACC0D9010D911C9111970617170705
:101B7000B0F00530110508F49FC0C801049786171E
:101B8000970708F499C002501109061B170B01931F
:101B900011936D937C93CF010E94030D8DC05B0167
:101BA000A01AB10A4C01800E911EA0918D03B09134
:101BB0008E0340E050E0E12CF12C109709F44AC06C
:101BC000A815B905D1F56D907C901197630182E05D
:101BD000C80ED11CCA14DB0480F1A3014A195B09A9
:101BE0006A0182E0C80ED11C1296BC90129713961F
:101BF000AC91B5E0CB16D10440F0B282A3835183FF
:101C00004083D9016D937C930AC00E5F1F4FC301BF
:101C1000800F911FF90191838083EB2DFA2FE1143E
:101C2000F10431F0D7011396FC93EE93129744C060
:101C3000F0938E03E0938D033FC08D919C9111979B
:101C40004817590708F4AC017D0112960D90BC911C
:101C5000A02DB3CF80918B0390918C0388159905AB
:101C6000E1F446175707C8F48091000190910101F3
:101C7000009741F48DB79EB7409104015091050142
:101C8000841B950BE817F907C8F4F0938C03E093D5
:101C90008B03F901718360830FC0CB010E946E0C2E
:101CA0007C01009759F0A801BE010E946A0ECE0186
:101CB0000E94030DC70104C0CE0102C080E090E085
:101CC000CDB7DEB7EEE00C94420C81E090E0F894E2
:101CD0000C947A0EFB01DC0102C001900D92415080
:101CE0005040D8F70895FB01DC0101900D920020CF
:101CF000E1F7089510E0C3E6D0E004C0FE010E94C1
:0E1D0000680C2196C436D107C9F7F894FFCFBE
:101D0E0000008F03800000000000F60072048E00B9
:101D1E003D01BF009D00B10000000000F701C701AA
:101D2E0027029B01BF01AB019C01564D4450565FEB
:101D3E00317C315F564D4450560D0A0073746172FA
:101D4E0074696E672073657269616C00564D4450FC
:101D5E00455F003A323A007C005F564D44504500D4
:101D6E00416363656C65726F6D657465723A2000D0
:101D7E00416358203D2000207C20416359203D20A6
:101D8E0000207C2041635A203D20000D436F6D7072
:101D9E00583A20002020436F6D70593A20002020C1
:101DAE00436F6D705A3A20002020202020202020E2
:101DBE0020202020202020200064656C61793A20AC
:021DCE00000013
:107800000C94343C0C94513C0C94513C0C94513CE1
:107810000C94513C0C94513C0C94513C0C94513CB4
:107820000C94513C0C94513C0C94513C0C94513CA4
:107830000C94513C0C94513C0C94513C0C94513C94
:107840000C94513C0C94513C0C94513C0C94513C84
:107850000C94513C0C94513C0C94513C0C94513C74
:107860000C94513C0C94513C11241FBECFEFD8E036
:10787000DEBFCDBF11E0A0E0B1E0ECE9FFE702C060
:1078800005900D92A230B107D9F712E0A2E0B1E065
:1078900001C01D92AD30B107E1F70E942D3D0C945F
:1078A000CC3F0C94003C982F959595959595959582
:1078B000905D8F708A307CF0282F295A8091C0000B
:1078C00085FFFCCF9093C6008091C00085FFFCCF60
:1078D0002093C6000895282F205DF0CF982F809127
:1078E000C00085FFFCCF9093C6000895EF92FF92F1
:1078F0000F931F93EE24FF2487018091C00087FD22
:1079000017C00894E11CF11C011D111D81E4E8164B
:1079100082E4F8068FE0080780E0180770F3E09132
:107920000401F091050109958091C00087FFE9CF1E
:107930008091C6001F910F91FF90EF9008950E94D3
:10794000763C982F8091C00085FFFCCF9093C600B5
:1079500091362CF490330CF09053892F089597555D
:10796000892F08951F930E949F3C182F0E949F3CCF
:107970001295107F810F1F9108951F93182F882350
:1079800021F00E94763C1150E1F71F9108951F935A
:10799000182F0E94763C803249F0809103018F5F5E
:1079A000809303018530C1F01F9108958091C0003C
:1079B00085FFFCCF84E18093C6008091C00085FFE5
:1079C000FCCF1093C6008091C00085FFFCCF80E102
:1079D0008093C6001F910895E0910401F091050184
:1079E00009951F9108950E94763C803241F0809164
:1079F00003018F5F80930301853081F008958091AA
:107A0000C00085FFFCCF84E18093C6008091C00058
:107A100085FFFCCF80E18093C6000895E0910401CA
:107A2000F09105010995089540E951E08823A1F0FE
:107A30002D9A28EE33E0FA013197F1F721503040CA
:107A4000D1F72D9828EE33E0FA013197F1F7215064
:107A50003040D1F7815061F708953F924F925F9285
:107A60006F927F928F929F92AF92BF92CF92DF924E
:107A7000EF92FF920F931F93CF93DF93000080E16B
:107A80008093C4001092C50088E18093C10086E015
:107A90008093C2005098589A259A81E00E94143D24
:107AA00024E1F22E9EE1E92E85E9D82E0FE0C02ECA
:107AB00010E1B12EAA24A394B1E49B2EA6E58A2E50
:107AC000F2E57F2EE0E26E2E79E4572E63E5462E36
:107AD00050E5352E0E94763C8033B1F18133B9F107
:107AE000803409F46FC0813409F476C0823409F41B
:107AF00085C0853409F488C0803531F1823521F1A3
:107B0000813511F1853509F485C0863509F48DC0BC
:107B1000843609F496C0843709F403C1853709F423
:107B200072C1863709F466C0809103018F5F80932C
:107B30000301853079F6E0910401F0910501099582
:107B40000E94763C803351F60E94F33CC3CF0E94E2
:107B5000763C803249F78091C00085FFFCCFF092DF
:107B6000C6008091C00085FFFCCF9092C600809136
:107B7000C00085FFFCCF8092C6008091C00085FFC9
:107B8000FCCF7092C6008091C00085FFFCCF609250
:107B9000C6008091C00085FFFCCF5092C600809146
:107BA000C00085FFFCCF4092C6008091C00085FFD9
:107BB000FCCF3092C6008091C00085FFFCCFB09210
:107BC000C60088CF0E94763C863808F4BDCF0E945C
:107BD000763C0E94F33C7ECF0E94763C803809F4CC
:107BE0009CC0813809F40BC1823809F43CC1883942
:107BF00009F48FC080E00E94C73C6CCF84E10E94F2
:107C0000BD3C0E94F33C66CF85E00E94BD3C0E94D3
:107C1000F33C60CF0E94763C809306010E94763C44
:107C2000809307010E94F33C55CF0E94763C80333D
:107C300009F41DC183E00E94BD3C80E00E94C73C66
:107C400049CF0E94763C809309020E94763C809343
:107C5000080280910C028E7F80930C020E94763C79
:107C6000853409F415C18091080290910902892B8D
:107C700089F000E010E00E94763CF801E85FFE4FDA
:107C800080830F5F1F4F80910802909109020817AF
:107C9000190788F30E94763C803209F045CF809125
:107CA0000C0280FF01C16091060170910701660F0F
:107CB000771F7093070160930601A0910802B091AD
:107CC00009021097C9F0E8E0F1E09B01AD014E0F09
:107CD0005F1FF999FECF32BD21BD819180BDFA9A17
:107CE000F99A2F5F3F4FE417F50799F76A0F7B1F4B
:107CF00070930701609306018091C00085FFFCCF5F
:107D0000F092C6008091C00085FFFCCFB092C60003
:107D1000E1CE83E00E94C73CDDCE82E00E94C73CFA
:107D2000D9CE0E94763C809309020E94763C8093D3
:107D300008028091060190910701880F991F909386
:107D40000701809306010E94763C853409F4A6C0A1
:107D500080910C028E7F80930C020E94763C8032D0
:107D600009F0B8CE8091C00085FFFCCFF092C6002C
:107D7000609108027091090261157105B9F140E046
:107D800050E080910C02A82FA170B82FB27011C0E2
:107D9000BB2309F45CC0E0910601F0910701319624
:107DA000F0930701E09306014F5F5F4F46175707B7
:107DB000E8F4AA2369F3F999FECF209106013091E6
:107DC000070132BD21BDF89A90B58091C00085FFB2
:107DD000FCCF9093C6002F5F3F4F30930701209355
:107DE00006014F5F5F4F4617570718F38091C00099
:107DF00085FDE5CE8091C00085FFF8CFE0CE81E023
:107E00000E94C73C67CE0E94763C803209F08CCE3F
:107E10008091C00085FFFCCFF092C6008091C00029
:107E200085FFFCCFE092C6008091C00085FFFCCFAB
:107E3000D092C6008091C00085FFFCCFC092C600E2
:107E40008091C00085FFFCCFB092C60043CEE09188
:107E50000601F091070194918091C00085FFFCCF4D
:107E60009093C6009CCF80E10E94C73C33CE0E9415
:107E7000763C0E94763C182F0E94763C112309F430
:107E800083C0113009F484C08FE00E94C73C22CE29
:107E900080910C02816080930C02E5CE80910C02EF
:107EA000816080930C0259CF809107018823880F4D
:107EB000880B8A2180930B02809106019091070123
:107EC000880F991F90930701809306018091080203
:107ED00080FF09C080910802909109020196909359
:107EE000090280930802F894F999FECF1127E091D6
:107EF0000601F0910701C8E0D1E08091080290915D
:107F00000902103091F40091570001700130D9F34B
:107F100003E000935700E89500915700017001308D
:107F2000D9F301E100935700E89509901990009169
:107F3000570001700130D9F301E000935700E89534
:107F40001395103498F011270091570001700130FB
:107F5000D9F305E000935700E895009157000170B0
:107F60000130D9F301E100935700E895329602976A
:107F700009F0C7CF103011F00296E5CF112480919F
:107F8000C00085FFB9CEBCCE8EE10E94C73CA2CD19
:0C7F900085E90E94C73C9ECDF894FFCF0D
:027F9C00800063
:040000030000780081
:00000001FF