:100000000C9478000C94A0000C94A0000C94A00018
:100010000C94A0000C94A0000C94A0000C94A000E0
:100020000C94A0000C94A0000C94A0000C94A000D0
:100030000C94A0000C94A0000C94A0000C94A000C0
:100040000C940E030C94A0000C94D0020C94AA0201
:100050000C94A0000C94A0000C94A0000C94A000A0
:100060000C9458030C94A000072C7AA5BA6CC59088
:10007000DA3B9365FC8BBC53F810FD3C5692834DE4
:10008000BD879D3AB63DCBC9BF5BBE73DA0FC93F92
:100090000000000800020100000304070000000047
:1000A000000000001F1C1F1E1F1E1F1F1E1F1E1FE3
:1000B00000000000250028002B00000000002400A4
:1000C00027002A00040404040404040402020202B7
:1000D000020203030303030301020408102040800B
:1000E000010204081020010204081020800B7A0B82
:1000F00011241FBECFEFD8E0DEBFCDBF23E0A8E8BC
:10010000B1E001C01D92A530B207E1F711E0A0E017
:10011000B1E0EEE2F3E202C005900D92A838B1071B
:10012000D9F710E0C7E7D0E004C02197FE010E9494
:10013000780FC637D107C9F70E94D5060C948A11EB
:100140000C9400008091DA0190E02091DB01821B89
:1001500091090895FC01538D448D252F30E0842FA3
:1001600090E0821B930B541710F0CF9608950197DF
:100170000895FC01918D828D981761F0828DDF01C9
:10018000A80FB11D5D968C91928D9F5F9F73928F8A
:1001900090E008958FEF9FEF0895FC01918D828D7F
:1001A000981731F0828DE80FF11D858D90E008954C
:1001B0008FEF9FEF0895FC01918D228D892F90E0A4
:1001C000805C9F4F821B91098F739927089582E568
:1001D00092E00E94DB0021E0892B09F420E0822FCD
:1001E0000895FC01848DDF01A80FB11DA35ABF4FF4
:1001F0002C91848D90E001968F739927848FA68926
:10020000B7892C93A089B1898C9180648C93938D4C
:10021000848D981306C00288F389E02D80818F7D3C
:1002200080830895EF92FF920F931F93CF93DF93F4
:10023000EC0181E0888F9B8D8C8D981305C0E88937
:10024000F989808185FD24C0F62E0B8D10E00F5FAB
:100250001F4F0F731127E02E8C8DE8120CC00FB6C4
:1002600007FCFACFE889F989808185FFF5CFCE01B7
:100270000E94F100F1CF8B8DFE01E80FF11DE35AD2
:10028000FF4FF0820B8FEA89FB898081806207C073
:10029000EE89FF896083E889F989808180648083A1
:1002A00081E090E0DF91CF911F910F91FF90EF904F
:1002B0000895CF93DF93EC01888D8823C9F0EA89F4
:1002C000FB89808185FD05C0A889B9898C9186FD4F
:1002D0000FC00FB607FCF5CF808185FFF2CFA8894C
:1002E000B9898C9185FFEDCFCE010E94F100E7CF57
:1002F000DF91CF91089580E090E0892B29F00E9452
:10030000E70081110C940000089590E0FC01E05793
:10031000FF4F3491FC01E852FF4F2491FC01EC5354
:10032000FF4FE491EE2309F43BC0332339F133301E
:1003300091F038F43130A9F0323001F584B58F7D79
:1003400012C0373091F03830A1F03430B9F48091D8
:1003500080008F7D03C0809180008F778093800024
:100360000DC084B58F7784BD09C08091B0008F77B0
:1003700003C08091B0008F7D8093B000F0E0EE0F5D
:10038000FF1FE055FF4FA591B4918FB7F894EC9102
:10039000611103C020952E2301C02E2B2C938FBFFB
:1003A000089585ED8093BC008091BC0084FDFCCF56
:1003B00010922D0208954091AA01262F30E0240FBB
:1003C000311D21323105DCF420912D022430C9F495
:1003D000FC0180E090E0861758F43091AA01219149
:1003E000DC01A857BE4FA30FB11D2C930196F3CF8C
:1003F0008091AA01680F6093AA0180E0089581E0CE
:10040000089582E0089510922D0281E080932C02DD
:100410001092070261E082E10E94850161E083E1C0
:100420000E948501E9EBF0E080818E7F80838081EE
:100430008D7F808388E48093B80085E48093BC003E
:1004400008950895E091DB018091DA01E81730F416
:10045000F0E0E951FE4F808190E008958FEF9FEF2B
:1004600008959091DB018091DA01981750F4E92FFB
:10047000F0E0E951FE4F208130E09F5F9093DB0177
:1004800002C02FEF3FEFC9010895CF92DF92EF92A4
:10049000FF920F931F93CF93DF937C01262F972F0B
:1004A0008A0180912E02882391F0C62FD72F6E01EA
:1004B000C40ED51ECC15DD0571F06991D701ED9103
:1004C000FC910190F081E02DC7010995F3CF642FD5
:1004D000822F0E94DB01C801DF91CF911F910F9104
:1004E000FF90EF90DF90CF900895CF93DF931F920E
:1004F000CDB7DEB7698320912E022223D1F020915F
:100500005102203240F021E030E0FC0133832283AD
:1005100080E090E015C080912F02E82FF0E0E05DD0
:10052000FD4F998190838F5F80932F0280935102BA
:1005300005C061E0CE0101960E94DB0181E090E000
:100540000F90DF91CF910895089580E090E0089595
:100550000E9475111F920F920FB60F9211242F93C4
:100560003F934F935F936F937F938F939F93AF933B
:10057000BF93EF93FF9382E592E00E94F100FF9119
:10058000EF91BF91AF919F918F917F916F915F910B
:100590004F913F912F910F900FBE0F901F90189584
:1005A0001F920F920FB60F9211242F938F939F9348
:1005B000EF93FF93E0916202F09163028081E091FA
:1005C0006802F091690282FD12C0908180916B02F5
:1005D0008F5F8F7320916C02821751F0E0916B0254
:1005E000F0E0EE5AFD4F958F80936B0201C0808141
:1005F000FF91EF919F918F912F910F900FBE0F90D0
:100600001F9018952FB7F8946091D4017091D5017F
:100610008091D6019091D7012FBF08951F920F921C
:100620000FB60F9211242F933F938F939F93AF9305
:10063000BF938091D4019091D501A091D601B09142
:10064000D7013091D30123E0230F2D3720F40196F9
:10065000A11DB11D05C026E8230F0296A11DB11DE5
:100660002093D3018093D4019093D501A093D60118
:10067000B093D7018091CF019091D001A091D10189
:10068000B091D2010196A11DB11D8093CF0190932D
:10069000D001A093D101B093D201BF91AF919F91AE
:1006A0008F913F912F910F900FBE0F901F90189533
:1006B0001F920F920FB60F9211242F933F934F93D7
:1006C0005F936F937F938F939F93AF93BF93EF93BA
:1006D000FF938091B900887F803609F49CC068F54B
:1006E000883209F45BC090F4803109F454C038F4C6
:1006F000882309F4F6C0883009F44DC0F6C088316B
:1007000009F44CC0803209F45DC0EFC0803409F4B4
:1007100068C048F4803309F455C0883309F0E5C057
:1007200080932B02D8C0803509F44FC0883509F476
:100730005DC0883409F0D9C0D6C0883909F4C7C073
:10074000A8F4883709F467C038F4883609F463C020
:10075000803709F460C0C9C0883809F4B8C080394E
:1007600009F45FC0803809F0C0C05BC0803B09F469
:1007700086C038F4803A09F466C0883A09F47FC02C
:10078000B4C0803C09F4A7C0883C09F4A4C0883BED
:1007900009F48AC0AAC08091080210C090912A0270
:1007A00080912902981770F5E0912A0281E08E0F5E
:1007B00080932A02F0E0E75FFD4F80818093BB00C9
:1007C00085EC86C080932B028EC0E0912A0281E0E6
:1007D0008E0F80932A028091BB00F0E0E75FFD4F0F
:1007E000808390912A02809129026EC0E0912A02B2
:1007F00081E08E0F80932A028091BB00F0E0E75FDA
:10080000FD4F808380912C0281116DC081E0809327
:10081000070284EA61C083E080932D021092CE012A
:10082000CFCF8091CE01803208F051C0E091CE014F
:1008300081E08E0F8093CE018091BB00F0E0E25505
:10084000FE4F8083BDCF85EC8093BC0010922D02BB
:100850008091CE01803230F4E091CE01F0E0E2559B
:10086000FE4F10826091CE0170E0E091AC01F091FA
:10087000AD018EEA91E009951092CE0136C084E078
:1008800080932D021092AB011092AA01E091A80171
:10089000F091A90109958091AA01811105C081E01B
:1008A0008093AA0110928801E091AB0181E08E0F44
:1008B0008093AB01F0E0E857FE4F80818093BB004E
:1008C0009091AB018091AA01981708F479CF85E83F
:1008D0008093BC000AC085EC8093BC0010922D026E
:1008E00004C010922B020E94D101FF91EF91BF91A1
:1008F000AF919F918F917F916F915F914F913F91B8
:100900002F910F900FBE0F901F901895CF92DF92EE
:10091000EF92FF920F931F93CF93DF936C017A01B5
:100920008B01C0E0D0E0CE15DF0589F0D8016D91D4
:100930008D01D601ED91FC910190F081E02DC60171
:100940000995892B11F47E0102C02196ECCFC701D5
:10095000DF91CF911F910F91FF90EF90DF90CF909B
:100960000895682F8FEE92E00C947502382F209135
:10097000510290915002213208F049C080912D021D
:100980008111FCCF42E040932D0230932C023FEFC7
:1009900030932B0210922A0220932902A0E3B2E0A6
:1009A00049E052E0FA013E2F341B321718F43D9112
:1009B0003193F9CF1092080220910802990F922BDF
:1009C0009093080290910702913061F4109207020F
:1009D000909108029093BB009091BC0093FDF8CFDA
:1009E00095EC01C095EE9093BC0090912D02923051
:1009F000E1F390912B029F3F79F080912B0280329E
:100A000041F080912B02803331F084E005C081E019
:100A100003C082E001C083E010922F0210925102C5
:100A200010922E020895009769F0FC0101900020B9
:100A3000E9F73197AF01481B590BBC0182E592E001
:100A40000C94860480E090E0089590E0FC01E85268
:100A5000FF4F2491FC01EC53FF4F8491882399F0C0
:100A600090E0880F991FFC01E654FF4FA591B491C7
:100A7000FC01E055FF4F859194918FB7F894EC916C
:100A8000E22BEC938FBF089590912D029111FCCF32
:100A900091E090932D0240932C022FEF20932B0294
:100AA00010922A02260F2093290290930802909117
:100AB0000802880F892B80930802809107028130F9
:100AC00061F410920702809108028093BB0080912C
:100AD000BC0083FDF8CF85EC01C085EE8093BC009F
:100AE00080912D028130E1F380912A02861710F463
:100AF00060912A02A9E0B2E027EE31E0F9018E2FE1
:100B0000821B861718F48D918193F9CF862F089553
:100B1000E0915202F09153020190F081E02D682F94
:100B200082E592E009948F929F92AF92BF920F93C9
:100B30001F93CF93DF93CDB7DEB7A1970FB6F8948D
:100B4000DEBF0FBECDBF19A2423008F44AE08E01CD
:100B50000F5D1F4F842E912CA12CB12CA501940167
:100B60000E94560FE62FB901CA0101501109EA305F
:100B700014F4E05D01C0E95CD801EC93232B242B35
:100B8000252B61F7C8010E941305A1960FB6F894B2
:100B9000DEBF0FBECDBFDF91CF911F910F91BF90F0
:100BA000AF909F908F9008954F925F926F927F9237
:100BB0008F929F92AF92BF92CF92DF92EF92FF926D
:100BC0006B017C019B01AC010E943C0F882319F052
:100BD0008CE791E01AC046015701E894B7F82FEF6F
:100BE0003FEF4FE75FE7C501B4010E943C0F811161
:100BF00010C02FEF3FEF4FE75FE7C501B4010E9440
:100C0000160C181634F480E891E00E9413057C015C
:100C10007FC02FEF3FEF4FE75FE4C701B6010E94AF
:100C2000F10E18161CF484E891E0EFCF2FEF3FEFA0
:100C30004FE75FECC701B6010E94160C87FDF3CFAA
:100C400020E030E0A901C701B6010E94160C87FF21
:100C500009C08DE20E9488055C01F7FAF094F7F86C
:100C6000F09402C0A12CB12C2AE037ED43EA5BE3FB
:100C7000C701B6010E949D0D2B013C010E947B0E15
:100C80006B017C010E941B0C9B01AC01C301B201F2
:100C90000E949C0D2B013C014AE0C701B6010E9455
:100CA00093057C01EA0CFB1C8EE20E948805E80E8D
:100CB000F91E20E030E040E251E4C301B2010E949D
:100CC0007C0C2B013C010E947B0E4B01A12CB12C12
:100CD0004AE0C501B4010E949305E80EF91EC50162
:100CE000B4010E941B0C9B01AC01C301B2010E9424
:100CF0009C0D20E030E040E251E40E947C0C0E9418
:100D00007B0E80E090E04AE00E949305E80EF91E19
:100D10008AE391E00E9413058E0D9F1DFF90EF90D6
:100D2000DF90CF90BF90AF909F908F907F906F900B
:100D30005F904F9008950F931F930E94020360935A
:100D40005A0270935B0280935C0290935D02E09183
:100D50005202F09153020484F585E02D82E592E081
:100D6000099597FF1FC00E94020300915A0210913B
:100D70005B0220915C0230915D02DC01CB01801BA3
:100D8000910BA20BB30B00915602109157022091C8
:100D900058023091590280179107A207B307B8F2A1
:100DA0008FEF9FEF1F910F910895CF93DF93CDB7F2
:100DB000DEB766970FB6F894DEBF0FBECDBF78944E
:100DC00084B5826084BD84B5816084BD85B5826050
:100DD00085BD85B5816085BD80916E008160809301
:100DE0006E0010928100809181008260809381006A
:100DF000809181008160809381008091800081607A
:100E0000809380008091B10084608093B1008091D4
:100E1000B00081608093B00080917A0084608093FC
:100E20007A0080917A00826080937A0080917A00C3
:100E3000816080937A0080917A00806880937A0044
:100E40001092C1001092DB011092DA0110922F0271
:100E5000109251020E94030283E190E00E947E0FF3
:100E60008C0180E1D80152968C9352978CE1519677
:100E70008C93519786E050968C9350971D961C92B8
:100E800081E697E943E95EEFD8011D96EC912E2F9C
:100E90002370A1E009F0A0E02A2F30E0B9016359E6
:100EA0007E4F8617970750F0BA01621B730B860FAF
:100EB000971FEF5FD8011D96EC93E6CF21E0F80174
:100EC0002687F8012685E22FF0E0ED55FF4FE491EB
:100ED000AA2319F0223009F4EF5FF0E08E179F0784
:100EE00020F08E1B9F0B2F5FEACF8F5FD8011F96DC
:100EF0008C9310922F02109251020E940302F8016B
:100F00001282118214821382168215821086178231
:100F100012861186148613861093D9010093D80186
:100F20008CE090E00E947E0F7C01DC011D921D92FE
:100F30001D921C921397FC0114821582168217824F
:100F400018961D921D921D921C921B9711E01093F2
:100F50002E0289E68093500210922F0210925102C5
:100F60008BE690E00E94B10480E090E00E94B10422
:100F700081E00E94B604F092DF01E092DE018CE095
:100F800090E00E947E0F7C01FC011082118212828F
:100F90001382148215821682178210861186128699
:100FA000138610932E028EE18093500210922F022E
:100FB0001092510282E090E00E94B10480E090E043
:100FC0000E94B10481E00E94B604F092DD01E0923B
:100FD000DC0182E00E94250560E082E00E9485013C
:100FE00083E00E94250561E083E00E94850184E0A2
:100FF0000E94250560E084E00E948501E091620284
:10100000F091630282E08083E0915E02F0915F02E2
:101010001082E0916002F09161028FEC8083109267
:101020006A02E0916602F091670286E08083E091B7
:101030006402F0916502808180618083E0916402A6
:10104000F0916502808188608083E0916402F09174
:101050006502808180688083E0916402F09165027E
:1010600080818F7D80838AE291E00E9413058AE36C
:1010700091E00E9413050E940203DC01CB0188511C
:101080009C4FAF4FBF4F8093E3019093E401A09337
:10109000E501B093E6011092E2011092E1012224F1
:1010A00023940E9402030091E3011091E401209136
:1010B000E5013091E601061717072807390708F000
:1010C000F3C282E592E00E94DB0003970CF44BC070
:1010D0000E949B06FC0197FD11C08D32910591F095
:1010E000C0970A9778F0E0915202F091530202847F
:1010F000F385E02D82E592E00995EACF80E090E06B
:10110000DC012DC020E030E0A901F12CE130F10537
:1011100009F0CDC2E0915202F09153020284F385AE
:10112000E02D82E592E0298B3A8B4B8B5C8B099505
:101130000E949B06FC01C09729893A894B895C89EA
:101140000A9720F3E130F10509F3FF2009F4CFC23B
:1011500088279927DC01821B930BA40BB50B909376
:10116000E2018093E1016091E001F1E06F2760937B
:10117000E00184E00E9485014091DE015091DF0191
:101180005E8B4D8B20922E0259E6509350021092A6
:101190002F02109251028BE390E00E94B10480E094
:1011A0000E94B60441E066E089E60E944405109280
:1011B000DB018093DA018FEE92E00E943102182F5A
:1011C0008FEE92E00E9431021C871B86EB84FC8428
:1011D000E82AF92A8FEE92E00E943102182F8FEE52
:1011E00092E00E9431021E871D860D851E85082B08
:1011F000192B8FEE92E00E943102382E8FEE92E092
:101200000E9431029A83898326E636E646E65FE34A
:10121000AD89BE896D917D918D919C910E947C0CD0
:101220004B015C01B701FF0C880B990B0E941D0C50
:101230002DEC3CEC4CEC5DE30E947C0C9B01AC0182
:10124000C501B4010E949D0D2B013C01ED89FE8971
:10125000608371838283938326E636E646E65FE306
:1012600064817581868197810E947C0C6B017C0171
:10127000B801110F880B990B0E941D0C2DEC3CEC52
:101280004CEC5DE30E947C0C9B01AC01C701B601F4
:101290000E949D0D6B017C01AD89BE8914966D93F2
:1012A0007D938D939C93179726E636E646E65FE39B
:1012B00018966D917D918D919C911B970E947C0C4D
:1012C0004B015C01388A1F866F857889E981FA8134
:1012D0006E2B7F2B072E000C880B990B0E941D0C88
:1012E0002DEC3CEC4CEC5DE30E947C0C9B01AC01D2
:1012F000C501B4010E949D0D69837A838B839C8311
:10130000AD89BE8918966D937D938D939C931B97A1
:10131000A3019201C301B2010E947C0C4B015C014C
:10132000A7019601C701B6010E947C0C9B01AC018C
:10133000C501B4010E949D0D4B015C0129813A81D8
:101340004B815C81CA01B9010E947C0C9B01AC01FC
:10135000C501B4010E949D0D0E94FC0E4B015C0171
:1013600020E030E0A901C301B2010E947C0C2B01F6
:101370003C0120E030E0A901C701B6010E947C0CCD
:101380009B01AC01C301B2010E949D0D29813A81EC
:101390004B815C810E949D0DA50194010E94090E64
:1013A0000E948B0D6B017C018DE391E00E9413057F
:1013B00020E030E044E353E4C701B6010E947C0C16
:1013C00029EE3FE049E450E40E94090E0E94D40552
:1013D000E091DC01F091DD01FE8BED8B20922E027D
:1013E000FEE1F093500210922F021092510283E01E
:1013F00090E00E94B10481E00E94B60441E066E002
:101400008EE10E9444051092DB018093DA0190E0A6
:1014100006975CF18FEE92E00E9431028E831D826E
:101420008FEE92E00E943102CD80DE80C82AD92A58
:101430008FEE92E00E94310288871F828FEE92E049
:101440000E9431020F811885082B192B8FEE92E034
:101450000E9431028A8719868FEE92E00E94310243
:10146000E984FA84E82AF92A06C0E12CF12CC12C7F
:10147000D12C00E010E026E636E646E65FE3AD89D3
:10148000BE896D917D918D919C910E947C0C4B0148
:101490005C01B601DD0C880B990B0E941D0C2DEC34
:1014A0003CEC4CEC5DE30E947C0C9B01AC01C50163
:1014B000B4010E949D0D2B013C01ED89FE896083E2
:1014C00071838283938326E636E646E65FE3648192
:1014D0007581868197810E947C0C4B015C01B7016C
:1014E000FF0C880B990B0E941D0C2DEC3CEC4CEC76
:1014F0005DE30E947C0C9B01AC01C501B4010E941C
:101500009D0D6B017C01AD89BE8914966D937D9311
:101510008D939C93179726E636E646E65FE318968A
:101520006D917D918D919C911B970E947C0C4B013C
:101530005C01B801110F880B990B0E941D0C2DEC5A
:101540003CEC4CEC5DE30E947C0C9B01AC01C501C2
:10155000B4010E949D0D69837A838B839C83ED89FE
:10156000FE896087718782879387A3019201C301F7
:10157000B2010E947C0C4B015C01A7019601C701DE
:10158000B6010E947C0C9B01AC01C501B4010E9414
:101590009D0D4B015C0129813A814B815C81CA011F
:1015A000B9010E947C0C9B01AC01C501B4010E94F1
:1015B0009D0D0E94FC0E4B015C0120E030E0A90172
:1015C000C301B2010E947C0C2B013C0120E030E001
:1015D000A901C701B6010E947C0C9B01AC01C301AB
:1015E000B2010E949D0D29813A814B815C810E944C
:1015F0009D0DA50194010E94090E0E948B0D6B01A7
:101600007C018BE591E00E94130520E030E044E38B
:1016100053E4C701B6010E947C0C29EE3FE049E487
:1016200050E40E94090E0E94D40584E791E00E94D4
:101630001305C090E101D090E2010D2C000CEE08E2
:10164000FF08F7FE0CC08DE20E9488056627772709
:10165000CB016C197D098E099F094AE003C04AE05D
:10166000C701B6010E9493058AE391E00E94130529
:101670000E9402032091E1013091E20148EE53E023
:10168000421B530B8A01550F220B330BDC01CB019C
:10169000800F911FA21FB31F8093E3019093E40179
:1016A000A093E501B093E6010E947B01FACCED32F4
:1016B000F105D1F0CF01C0970A9708F02BCDAAE031
:1016C000B0E00E943A0D8F01FF0F220B330BDC01BB
:1016D000CB01800F911FA21FB31F9C01AD012053AE
:1016E00031094109510916CDFF24F39413CDDA01D4
:1016F000C90135CD8091FB029091FC020C9413102E
:10170000109255021092540288EE93E0A0E0B0E0EF
:101710008093560290935702A0935802B0935902B7
:101720002AE031E0309353022093520225EC30E05E
:1017300030935F0220935E0224EC30E0309361022C
:101740002093600220EC30E0309363022093620229
:1017500021EC30E0309365022093640222EC30E00B
:10176000309367022093660226EC30E030936902E2
:101770002093680210926B0210926C0210926D021C
:1017800010926E021092F2021092F1028093F30214
:101790009093F402A093F502B093F6028CE191E0ED
:1017A0009093F0028093EF021092FC021092FB02E1
:1017B0001092FE021092FD02109200031092FF029E
:1017C00061E070E080E090E00E94AB10009789F04B
:1017D0009093FC028093FB021092FE021092FD0295
:1017E0002091FF0230910003232BC1F4FC011082F1
:1017F00015C08091FB029091FC02009711F00E94AD
:1018000013101092FC021092FB021092000310922F
:10181000FF021092FE021092FD0208951092000342
:101820001092FF026CE371E00C9483110E94580C3B
:1018300008F481E00895E89409C097FB3EF4909580
:101840008095709561957F4F8F4F9F4F9923A9F099
:10185000F92F96E9BB279395F69587957795679528
:10186000B795F111F8CFFAF4BB0F11F460FF1BC06C
:101870006F5F7F4F8F4F9F4F16C0882311F096E9FF
:1018800011C0772321F09EE8872F762F05C06623AD
:1018900071F096E8862F70E060E02AF09A95660F66
:1018A000771F881FDAF7880F9695879597F908951F
:1018B000990F0008550FAA0BE0E8FEEF1616170661
:1018C000E807F907C0F012161306E407F50798F0C9
:1018D000621B730B840B950B39F40A2661F0232BE2
:1018E000242B252B21F408950A2609F4A140A6955E
:1018F0008FEF811D811D08950E948F0C0C94000DA7
:101900000E94F20C38F00E94F90C20F0952311F09F
:101910000C94E90C0C94EF0C11240C94340D0E94DF
:10192000110D70F3959FC1F3950F50E0551F629F05
:10193000F001729FBB27F00DB11D639FAA27F00D28
:10194000B11DAA1F649F6627B00DA11D661F829F4F
:101950002227B00DA11D621F739FB00DA11D621F34
:10196000839FA00D611D221F749F3327A00D611D51
:10197000231F849F600D211D822F762F6A2F112433
:101980009F5750409AF0F1F088234AF0EE0FFF1F66
:10199000BB1F661F771F881F91505040A9F79E3FBD
:1019A000510580F00C94E90C0C94340D5F3FE4F386
:1019B000983ED4F3869577956795B795F795E79513
:1019C0009F5FC1F7FE2B880F911D9695879597F91C
:1019D000089597F99F6780E870E060E008959FEFB1
:1019E00080EC089500240A941616170618060906B6
:1019F000089500240A941216130614060506089585
:101A0000092E0394000C11F4882352F0BB0F40F40C
:101A1000BF2B11F460FF04C06F5F7F4F8F4F9F4F4C
:101A2000089557FD9058440F551F59F05F3F71F0CE
:101A30004795880F97FB991F61F09F3F79F0879535
:101A40000895121613061406551FF2CF4695F1DFBE
:101A500008C0161617061806991FF1CF869571054E
:101A6000610508940895E894BB2766277727CB0182
:101A700097F908950E947C0DA59F900DB49F900D3D
:101A8000A49F800D911D112408952F923F924F9293
:101A90005F926F927F928F929F92AF92BF92CF92FE
:101AA000DF92EF92FF920F931F93CF93DF93CDB707
:101AB000DEB7CA1BDB0B0FB6F894DEBF0FBECDBF7F
:101AC00009942A88398848885F846E847D848C8450
:101AD0009B84AA84B984C884DF80EE80FD800C8159
:101AE0001B81AA81B981CE0FD11D0FB6F894DEBF3C
:101AF0000FBECDBFED010895A29FB001B39FC001FD
:101B0000A39F700D811D1124911DB29F700D811D29
:101B10001124911D08959F939F770E94AA0E0F9004
:101B2000002042F49058A2EA2AED3FE049E450E454
:101B30000E94B40D0C94000D5058BB27AA270E9498
:101B4000B40D0C94000D0E94F20C38F00E94F90CB8
:101B500020F039F49F3F19F426F40C94EF0C0EF4A6
:101B6000E095E7FB0C94E90CE92F0E94110D58F366
:101B7000BA17620773078407950720F079F4A6F572
:101B80000C94330D0EF4E0950B2EBA2FA02D0B0103
:101B9000B90190010C01CA01A0011124FF27591BB2
:101BA00099F0593F50F4503E68F11A16F040A22FB8
:101BB000232F342F4427585FF3CF46953795279529
:101BC000A795F0405395C9F77EF41F16BA0B620B28
:101BD000730B840BBAF09150A1F0FF0FBB1F661F6F
:101BE000771F881FC2F70EC0BA0F621F731F841FB2
:101BF00048F4879577956795B795F7959E3F08F0D8
:101C0000B0CF9395880F08F09927EE0F9795879599
:101C100008950E941D0E0C94000D0E94F90C58F0BE
:101C20000E94F20C40F029F45F3F29F00C94E90C7B
:101C300051110C94340D0C94EF0C0E94110D68F3AB
:101C40009923B1F3552391F3951B550BBB27AA2775
:101C500062177307840738F09F5F5F4F220F331FAF
:101C6000441FAA1FA9F335D00E2E3AF0E0E832D077
:101C700091505040E695001CCAF72BD0FE2F29D07A
:101C8000660F771F881FBB1F261737074807AB074C
:101C9000B0E809F0BB0B802DBF01FF2793585F4FC1
:101CA0003AF09E3F510578F00C94E90C0C94340DF9
:101CB0005F3FE4F3983ED4F3869577956795B795A3
:101CC000F7959F5FC9F7880F911D9695879597F9AE
:101CD0000895E1E0660F771F881FBB1F6217730727
:101CE0008407BA0720F0621B730B840BBA0BEE1F3C
:101CF00088F7E09508950E94190D88F09F5798F095
:101D0000B92F9927B751B0F0E1F0660F771F881F00
:101D1000991F1AF0BA95C9F714C0B13091F00E941A
:101D2000330DB1E008950C94330D672F782F882779
:101D3000B85F39F0B93FCCF3869577956795B39541
:101D4000D9F73EF490958095709561957F4F8F4FB0
:101D50009F4F0895DF93CF931F930F938B01EC0157
:101D6000E8E6F0E00E94CA0E0E94000D9801AE0164
:101D70008B01EC0160E070E080E89FE30E949C0D25
:101D80000E94FC0E9801AE010F911F91CF91DF913F
:101D90000C948F0CDF93CF931F930F93FF92EF92CE
:101DA000DF927B018C01689406C0DA2EEF010E945D
:101DB0008F0CFE01E894A59125913591459155919F
:101DC000A6F3EF010E94B40DFE019701A801DA9479
:101DD00069F7DF90EF90FF900F911F91CF91DF9106
:101DE00008950E94580C08F48FEF089519F416F422
:101DF0000C94EF0C0C94410F0E94190DB8F3992329
:101E0000C9F3B6F39F57550B87FF0E944F0F00246D
:101E1000A0E640EA900180585695979528F4805C9A
:101E2000660F771F881F20F026173707480730F402
:101E3000621B730B840B202931294A2BA69517941A
:101E40000794202531254A2758F7660F771F881FEA
:101E500020F026173707480730F4620B730B840B0A
:101E6000200D311D411DA09581F7B901842F915896
:101E7000880F9695879508950E94580C880B990BAA
:101E800008959F3F31F0915020F48795779567959D
:101E9000B795880F911D9695879597F9089591505C
:101EA0005040660F771F881FD2F70895A1E21A2EBF
:101EB000AA1BBB1BFD010DC0AA1FBB1FEE1FFF1FEE
:101EC000A217B307E407F50720F0A21BB30BE40B3E
:101ED000F50B661F771F881F991F1A9469F7609585
:101EE0007095809590959B01AC01BD01CF0108953F
:101EF000EE0FFF1F0590F491E02D0994CF93DF932F
:101F00008230910510F482E090E0E0910303F091BB
:101F1000040320E030E0C0E0D0E0309711F14081D0
:101F2000518148175907C0F04817590761F4828159
:101F30009381209719F09B838A832BC0909304038D
:101F40008093030326C02115310519F0421753076A
:101F500018F49A01BE01DF01EF010280F381E02D48
:101F6000DCCF2115310509F1281B390B243031054F
:101F700090F412968D919C9113976115710521F043
:101F8000FB019383828304C0909304038093030333
:101F9000FD01329644C0FD01E20FF31F819391933E
:101FA000225031092D933C933AC020910103309186
:101FB0000203232B41F4209102013091030130935D
:101FC00002032093010320910001309101012115AA
:101FD000310541F42DB73EB7409104015091050100
:101FE000241B350BE0910103F0910203E217F30784
:101FF000A0F42E1B3F0B2817390778F0AC014E5F79
:102000005F4F2417350748F04E0F5F1F50930203B0
:10201000409301038193919302C0E0E0F0E0CF018F
:10202000DF91CF9108950F931F93CF93DF93009784
:1020300009F48CC0FC0132971382128200910303D1
:10204000109104030115110581F420813181820F63
:10205000931F20910103309102032817390779F566
:10206000F0930203E093010371C0D80140E050E017
:10207000AE17BF0750F412962D913C911397AD0106
:102080002115310509F1D901F3CF9D01DA0133831F
:10209000228360817181860F971F8217930769F4ED
:1020A000EC0128813981260F371F2E5F3F4F318386
:1020B00020838A819B8193838283452B29F4F0932B
:1020C0000403E093030342C01396FC93EE9312972C
:1020D000ED01499159919E01240F351FE217F30735
:1020E00071F480819181840F951F029611969C93C3
:1020F0008E938281938113969C938E931297E0E046
:10210000F0E0D80112968D919C911397009719F0E9
:10211000F8018C01F6CF8D919C9198012E5F3F4F75
:10212000820F931F20910103309102032817390772
:1021300069F4309729F4109204031092030302C04B
:10214000138212821093020300930103DF91CF9157
:102150001F910F910895A0E0B0E0E1EBF0E10C9445
:10216000490DEC01009721F4CB010E947E0FB8C00D
:10217000FC01E60FF71F9C0122503109E217F3071B
:1021800008F4ACC0D9010D911C91119706171707DF
:10219000B0F00530110508F49FC0C80104978617F8
:1021A000970708F499C002501109061B170B0193F9
:1021B00011936D937C93CF010E9413108DC05B012E
:1021C000A01AB10A4C01800E911EA0910303B09198
:1021D000040340E050E0E12CF12C109709F44AC0D0
:1021E000A815B905D1F56D907C901197630182E037
:1021F000C80ED11CCA14DB0480F1A3014A195B0983
:102200006A0182E0C80ED11C1296BC9012971396F8
:10221000AC91B5E0CB16D10440F0B282A3835183D8
:102220004083D9016D937C930AC00E5F1F4FC30199
:10223000800F911FF90191838083EB2DFA2FE11418
:10224000F10431F0D7011396FC93EE93129744C03A
:10225000F0930403E09303033FC08D919C91119789
:102260004817590708F4AC017D0112960D90BC91F6
:10227000A02DB3CF80910103909102038815990599
:10228000E1F446175707C8F48091000190910101CD
:10229000009741F48DB79EB740910401509105011C
:1022A000841B950BE817F907C8F4F0930203E09339
:1022B0000103F901718360830FC0CB010E947E0F7F
:1022C0007C01009759F0A801BE010E947A11CE014D
:1022D0000E941310C70104C0CE0102C080E090E04C
:1022E000CDB7DEB7EEE00C94650D81E090E0F89498
:1022F0000C948A11FB01DC0102C001900D92415047
:102300005040D8F70895FB01DC0101900D920020A8
:10231000E1F7089510E0C7E7D0E004C0FE010E9495
:0E232000780F2196C837D107C9F7F894FFCF80
:10232E000000050380000000000012018604AA00D0
:10233E005901DB00B900CD00000000007502450216
:10234E00A5022102A2003102220273746172746925
:10235E006E672073657269616C000D0A0020416E14
:10236E00676C652072656C697469766520746F2080
:10237E0076657269636C65203D200020636F6D7019
:10238E0061737320616E676C6520746F2072656671
:10239E00203D200064656C61793A20006E616E000C
:0823AE00696E66006F7666009F
:107800000C94343C0C94513C0C94513C0C94513CE1
:107810000C94513C0C94513C0C94513C0C94513CB4
:107820000C94513C0C94513C0C94513C0C94513CA4
:107830000C94513C0C94513C0C94513C0C94513C94
:107840000C94513C0C94513C0C94513C0C94513C84
:107850000C94513C0C94513C0C94513C0C94513C74
:107860000C94513C0C94513C11241FBECFEFD8E036
:10787000DEBFCDBF11E0A0E0B1E0ECE9FFE702C060
:1078800005900D92A230B107D9F712E0A2E0B1E065
:1078900001C01D92AD30B107E1F70E942D3D0C945F
:1078A000CC3F0C94003C982F959595959595959582
:1078B000905D8F708A307CF0282F295A8091C0000B
:1078C00085FFFCCF9093C6008091C00085FFFCCF60
:1078D0002093C6000895282F205DF0CF982F809127
:1078E000C00085FFFCCF9093C6000895EF92FF92F1
:1078F0000F931F93EE24FF2487018091C00087FD22
:1079000017C00894E11CF11C011D111D81E4E8164B
:1079100082E4F8068FE0080780E0180770F3E09132
:107920000401F091050109958091C00087FFE9CF1E
:107930008091C6001F910F91FF90EF9008950E94D3
:10794000763C982F8091C00085FFFCCF9093C600B5
:1079500091362CF490330CF09053892F089597555D
:10796000892F08951F930E949F3C182F0E949F3CCF
:107970001295107F810F1F9108951F93182F882350
:1079800021F00E94763C1150E1F71F9108951F935A
:10799000182F0E94763C803249F0809103018F5F5E
:1079A000809303018530C1F01F9108958091C0003C
:1079B00085FFFCCF84E18093C6008091C00085FFE5
:1079C000FCCF1093C6008091C00085FFFCCF80E102
:1079D0008093C6001F910895E0910401F091050184
:1079E00009951F9108950E94763C803241F0809164
:1079F00003018F5F80930301853081F008958091AA
:107A0000C00085FFFCCF84E18093C6008091C00058
:107A100085FFFCCF80E18093C6000895E0910401CA
:107A2000F09105010995089540E951E08823A1F0FE
:107A30002D9A28EE33E0FA013197F1F721503040CA
:107A4000D1F72D9828EE33E0FA013197F1F7215064
:107A50003040D1F7815061F708953F924F925F9285
:107A60006F927F928F929F92AF92BF92CF92DF924E
:107A7000EF92FF920F931F93CF93DF93000080E16B
:107A80008093C4001092C50088E18093C10086E015
:107A90008093C2005098589A259A81E00E94143D24
:107AA00024E1F22E9EE1E92E85E9D82E0FE0C02ECA
:107AB00010E1B12EAA24A394B1E49B2EA6E58A2E50
:107AC000F2E57F2EE0E26E2E79E4572E63E5462E36
:107AD00050E5352E0E94763C8033B1F18133B9F107
:107AE000803409F46FC0813409F476C0823409F41B
:107AF00085C0853409F488C0803531F1823521F1A3
:107B0000813511F1853509F485C0863509F48DC0BC
:107B1000843609F496C0843709F403C1853709F423
:107B200072C1863709F466C0809103018F5F80932C
:107B30000301853079F6E0910401F0910501099582
:107B40000E94763C803351F60E94F33CC3CF0E94E2
:107B5000763C803249F78091C00085FFFCCFF092DF
:107B6000C6008091C00085FFFCCF9092C600809136
:107B7000C00085FFFCCF8092C6008091C00085FFC9
:107B8000FCCF7092C6008091C00085FFFCCF609250
:107B9000C6008091C00085FFFCCF5092C600809146
:107BA000C00085FFFCCF4092C6008091C00085FFD9
:107BB000FCCF3092C6008091C00085FFFCCFB09210
:107BC000C60088CF0E94763C863808F4BDCF0E945C
:107BD000763C0E94F33C7ECF0E94763C803809F4CC
:107BE0009CC0813809F40BC1823809F43CC1883942
:107BF00009F48FC080E00E94C73C6CCF84E10E94F2
:107C0000BD3C0E94F33C66CF85E00E94BD3C0E94D3
:107C1000F33C60CF0E94763C809306010E94763C44
:107C2000809307010E94F33C55CF0E94763C80333D
:107C300009F41DC183E00E94BD3C80E00E94C73C66
:107C400049CF0E94763C809309020E94763C809343
:107C5000080280910C028E7F80930C020E94763C79
:107C6000853409F415C18091080290910902892B8D
:107C700089F000E010E00E94763CF801E85FFE4FDA
:107C800080830F5F1F4F80910802909109020817AF
:107C9000190788F30E94763C803209F045CF809125
:107CA0000C0280FF01C16091060170910701660F0F
:107CB000771F7093070160930601A0910802B091AD
:107CC00009021097C9F0E8E0F1E09B01AD014E0F09
:107CD0005F1FF999FECF32BD21BD819180BDFA9A17
:107CE000F99A2F5F3F4FE417F50799F76A0F7B1F4B
:107CF00070930701609306018091C00085FFFCCF5F
:107D0000F092C6008091C00085FFFCCFB092C60003
:107D1000E1CE83E00E94C73CDDCE82E00E94C73CFA
:107D2000D9CE0E94763C809309020E94763C8093D3
:107D300008028091060190910701880F991F909386
:107D40000701809306010E94763C853409F4A6C0A1
:107D500080910C028E7F80930C020E94763C8032D0
:107D600009F0B8CE8091C00085FFFCCFF092C6002C
:107D7000609108027091090261157105B9F140E046
:107D800050E080910C02A82FA170B82FB27011C0E2
:107D9000BB2309F45CC0E0910601F0910701319624
:107DA000F0930701E09306014F5F5F4F46175707B7
:107DB000E8F4AA2369F3F999FECF209106013091E6
:107DC000070132BD21BDF89A90B58091C00085FFB2
:107DD000FCCF9093C6002F5F3F4F30930701209355
:107DE00006014F5F5F4F4617570718F38091C00099
:107DF00085FDE5CE8091C00085FFF8CFE0CE81E023
:107E00000E94C73C67CE0E94763C803209F08CCE3F
:107E10008091C00085FFFCCFF092C6008091C00029
:107E200085FFFCCFE092C6008091C00085FFFCCFAB
:107E3000D092C6008091C00085FFFCCFC092C600E2
:107E40008091C00085FFFCCFB092C60043CEE09188
:107E50000601F091070194918091C00085FFFCCF4D
:107E60009093C6009CCF80E10E94C73C33CE0E9415
:107E7000763C0E94763C182F0E94763C112309F430
:107E800083C0113009F484C08FE00E94C73C22CE29
:107E900080910C02816080930C02E5CE80910C02EF
:107EA000816080930C0259CF809107018823880F4D
:107EB000880B8A2180930B02809106019091070123
:107EC000880F991F90930701809306018091080203
:107ED00080FF09C080910802909109020196909359
:107EE000090280930802F894F999FECF1127E091D6
:107EF0000601F0910701C8E0D1E08091080290915D
:107F00000902103091F40091570001700130D9F34B
:107F100003E000935700E89500915700017001308D
:107F2000D9F301E100935700E89509901990009169
:107F3000570001700130D9F301E000935700E89534
:107F40001395103498F011270091570001700130FB
:107F5000D9F305E000935700E895009157000170B0
:107F60000130D9F301E100935700E895329602976A
:107F700009F0C7CF103011F00296E5CF112480919F
:107F8000C00085FFB9CEBCCE8EE10E94C73CA2CD19
:0C7F900085E90E94C73C9ECDF894FFCF0D
:027F9C00800063
:040000030000780081
:00000001FF